S02B0000433A5C55736572735C686164656C6C615C4465736B746F705C66655F6D6963726F5F6769745C666522
S315600000004643464200040156000000000103030017
S31560000010000000000000000000000000000000007A
S31560000020000000000000000000000000000000006A
S31560000030000000000000000000000000000000005A
S315600000400000000000040600000000000000000040
S3156000005000004000000000000000000000000000FA
S31560000060000000000000000000000000000000002A
S31560000070000000000000000000000000000000001A
S31560000080EB04180A06320426000000000000000097
S3156000009000000000000000000000000000000000FA
S315600000A000000000000000000000000000000000EA
S315600000B000000000000000000000000000000000DA
S315600000C000000000000000000000000000000000CA
S315600000D000000000000000000000000000000000BA
S315600000E000000000000000000000000000000000AA
S315600000F0000000000000000000000000000000009A
S315600001000000000000000000000000000000000089
S315600001100000000000000000000000000000000079
S315600001200000000000000000000000000000000069
S315600001300000000000000000000000000000000059
S315600001400000000000000000000000000000000049
S315600001500000000000000000000000000000000039
S315600001600000000000000000000000000000000029
S315600001700000000000000000000000000000000019
S315600001800000000000000000000000000000000009
S3156000019000000000000000000000000000000000F9
S315600001A000000000000000000000000000000000E9
S315600001B000000000000000000000000000000000D9
S315600001C000010000001000000000000000000000B8
S315600001D000000100000000000000000000000000B8
S315600001E000000000000000000000000000000000A9
S315600001F00000000000000000000000000000000099
S31560000200FFFFFFFFFFFFFFFFFFFFFFFFFFFFFFFF98
S31560000210FFFFFFFFFFFFFFFFFFFFFFFFFFFFFFFF88
S31560001000D100204100200060000000003010006028
S31560001010201000600010006000000000000000006A
S31560001020000000600000400000000000FFFFFFFFBE
S31560001030D2043041CC03AC04400FC068FFFFFFFF11
S31560001040400FC06CFFFFFFFF400FC070FFFFFFFF48
S31560001050400FC074FFFFFFFF400FC078FFFFFFFF28
S31560001060400FC07CFFFFFFFF400FC080FFFFFFFF08
S31560001070400D803000002001400D8100001D000001
S31560001080400FC01400010D40401F80140000000096
S31560001090401F801800000000401F801C00000000F8
S315600010A0401F802000000000401F802400000000D8
S315600010B0401F802800000000401F802C00000000B8
S315600010C0401F803000000000401F80340000000098
S315600010D0401F803800000000401F803C0000000078
S315600010E0401F804000000000401F80440000000058
S315600010F0401F804800000000401F804C0000000038
S31560001100401F805000000000401F80540000000017
S31560001110401F805800000000401F805C00000000F7
S31560001120401F806000000000401F806400000000D7
S31560001130401F806800000000401F806C00000000B7
S31560001140401F807000000000401F80740000000097
S31560001150401F807800000000401F807C0000000077
S31560001160401F808000000000401F80840000000057
S31560001170401F808800000000401F808C0000000037
S31560001180401F809000000000401F80940000000017
S31560001190401F809800000000401F809C00000000F7
S315600011A0401F80A000000000401F80A400000000D7
S315600011B0401F80A800000000401F80AC00000000B7
S315600011C0401F80B000000010401F80B40000000087
S315600011D0401F80B800000000401F8204000110F923
S315600011E0401F8208000110F9401F820C000110F9AF
S315600011F0401F8210000110F9401F8214000110F98F
S31560001200401F8218000110F9401F821C000110F96E
S31560001210401F8220000110F9401F8224000110F94E
S31560001220401F8228000110F9401F822C000110F92E
S31560001230401F8230000110F9401F8234000110F90E
S31560001240401F8238000110F9401F823C000110F9EE
S31560001250401F8240000110F9401F8244000110F9CE
S31560001260401F8248000110F9401F824C000110F9AE
S31560001270401F8250000110F9401F8254000110F98E
S31560001280401F8258000110F9401F825C000110F96E
S31560001290401F8260000110F9401F8264000110F94E
S315600012A0401F8268000110F9401F826C000110F92E
S315600012B0401F8270000110F9401F8274000110F90E
S315600012C0401F8278000110F9401F827C000110F9EE
S315600012D0401F8280000110F9401F8284000110F9CE
S315600012E0401F8288000110F9401F828C000110F9AE
S315600012F0401F8290000110F9401F8294000110F98E
S31560001300401F8298000110F9401F829C000110F96D
S31560001310401F82A0000110F9401F82A4000110F94D
S31560001320401F82A8000110F9402F00001000000441
S31560001330402F000800030524402F000C06030524F7
S31560001340402F001080000017402F00148200001705
S31560001350402F001884000017402F001C86000017DD
S31560001360402F002090000021402F0024A00000158F
S31560001370402F0028A8000017402F002CA900001B52
S31560001380402F003000000021402F000401007988C2
S31560001390402F004000000FF1402F004400652922D5
S315600013A0402F004800010920402F004C50210A08B8
S315600013B0402F008000004031402F008400888888DC
S315600013C0402F009400000002402F009800000000AB
S315600013D0402F009080000000402F009CA55A000F0F
S315600013E0CF000C1C402F003C00000001CC00140410
S315600013F0402F009080000000402F009CA55A000CF2
S31560001400CF000C1C402F003C00000001CC001404EF
S31560001410402F009080000000402F009CA55A000CD1
S31560001420CF000C1C402F003C00000001CC001C04C7
S31560001430402F00A000000033402F00908000000085
S31560001440402F009CA55A000ACF000C1C402F003C80
S3156000145000000001CC000C04402F004C50210A090A
S31560001460FFFFFFFFFFFFFFFFFFFFFFFFFFFFFFFF26
S31560001470FFFFFFFFFFFFFFFFFFFFFFFFFFFFFFFF16
S31560001480FFFFFFFFFFFFFFFFFFFFFFFFFFFFFFFF06
S31560001490FFFFFFFFFFFFFFFFFFFFFFFFFFFFFFFFF6
S3156000200000802020F52200601524006081EE0160CA
S31560002010000000000000000000000000000000005A
S315600020200000000000000000000000004124006085
S31560002030000000000000000071240060F96B016080
S31560002040DDE50160E9E50160F5E5016001E6016055
S315600020500DE6016019E6016025E6016031E6016082
S315600020603DE6016049E6016055E6016061E60160B2
S315600020706DE6016079E6016085E6016091E60160E2
S315600020809DE60160A9E60160B5E60160C1E6016012
S31560002090CDE60160D9E60160E5E60160F1E6016042
S315600020A0FDE6016009E7016015E7016021E701606F
S315600020B02DE7016039E7016045E7016051E701609E
S315600020C05DE7016069E7016075E7016081E70160CE
S315600020D08DE7016099E70160A5E70160B1E70160FE
S315600020E0BDE70160C9E70160D5E70160E1E701602E
S315600020F0EDE70160F9E7016005E8016011E801605C
S315600021001DE8016029E8016035E8016041E8016089
S315600021104DE8016059E8016065E8016071E80160B9
S315600021207DE8016089E8016095E80160A1E80160E9
S31560002130ADE80160B9E80160C5E80160D1E8016019
S31560002140DDE80160E9E80160F5E8016001E9016048
S315600021500DE9016019E9016025E9016031E9016075
S315600021603DE9016049E9016055E9016061E90160A5
S315600021706DE9016079E9016085E9016091E90160D5
S315600021809DE90160A9E901605192006069B800604B
S31560002190B5E90160C1E90160CDE90160D9E9016095
S315600021A0E5E90160F1E90160FDE9016009EA0160C4
S315600021B015EA016021EA01602DEA016039EA0160F1
S315600021C045EA016051EA01605DEA016069EA016021
S315600021D075EA016081EA01608DEA016099EA016051
S315600021E0A5EA0160B1EA0160BDEA0160C9EA016081
S315600021F0D5EA0160E1EA0160EDEA0160F9EA0160B1
S31560002200C1890060A989006005EB016011EB01607E
S315600022101DEB016029EB016035EB016041EB01606C
S315600022204DEB016059EB016065EB016071EB01609C
S315600022307DEB016089EB016095EB0160A1EB0160CC
S31560002240ADEB0160B9EB0160C5EB0160D1EB0160FC
S31560002250DDEB0160E9EB0160F5EB016001EC01602B
S315600022600DEC016019EC016025EC016031EC016058
S315600022703DEC016049EC016055EC016061EC016088
S315600022806DEC016079EC016085EC016091EC0160B8
S315600022909DEC0160A9EC0160B5EC0160C1EC0160E8
S315600022A0CDEC0160D9EC0160E5EC0160F1EC016018
S315600022B0FDEC016009ED01607C38046000000020DF
S315600022C0CC0200007C380460000020200000000082
S315600022D07C380460000000800000000000080020D8
S315600022E04C75000000002020000000000000008007
S315600022F00000000080B584B000AF72B61F4B4FF08F
S31560002300AA321A601E4B1F4A1A601F4B4FF42002F6
S315600023101A6012F0A1FB1D4BFB6013E0FB681A1DEF
S31560002320FA601B68BB60FB681A1DFA601B687B60FD
S31560002330FB681A1DFA601B683B603A687968B86882
S3156000234000F02AF8FB68124A9342E7D30DE0FB6877
S315600023501A1DFA601B687B60FB681A1DFA601B68B1
S315600023603B603968786800F039F8FB68094A93423F
S31560002370EDD362B625F071FAFEE700BF44C00A40AD
S3156000238040C00A400600200038C00A40B8220060FB
S31560002390DC220060F422006080B489B000AFF8608F
S315600023A0B9607A60BB68FB61FB68BB6100237B61D7
S315600023B00AE0BA69131DBB61FB69191DF9611268F0
S315600023C01A607B6904337B617A697B689A42F0D3D1
S315600023D000BF2437BD465DF8047B704780B485B086
S315600023E000AF786039607B68FB600023BB6007E004
S315600023F0FB681A1DFA6000221A60BB680433BB6072
S31560002400BA683B689A42F3D300BF1437BD465DF89D
S31560002410047B704780B400AFFEE780B400AFFEE790
S3156000242080B400AFFEE780B400AFFEE780B400AFD3
S31560002430FEE780B400AFFEE7FFFFFFFFFFFFFFFF91
S31560002440074B19680868B0E8F04F80F30988BFF356
S315600024506F8F4FF0000080F311887047AFF30080F4
S315600024603C7B002000BF00BFFFFFFFFFFFFFFFFFB9
S31560002470EFF30980BFF36F8F154B1A681EF0100FCC
S3156000248008BF20ED108A20E9F04F10602DE90900A1
S315600024904FF0200080F31188BFF34F8FBFF36F8F2B
S315600024A015F020FA4FF0000080F3118809BC196816
S315600024B00868B0E8F04F1EF0100F08BFB0EC108A45
S315600024C080F30988BFF36F8F704700BFAFF300805A
S315600024D03C7B002000BF00BF90B58BB000AF78603A
S315600024E07B685B88092B40F0C480694B17221A70A1
S315600024F0674B0B225A807B681A79654B1A710023E9
S315600025007B627B681B79072B00F2A68001A252F8DA
S3156000251023F000BF352500604F2500606925006007
S31560002520832500609D250060B7250060E325006077
S31560002530FD250060574B1B68574A584918461DF0E1
S31560002540AAFD7862554B1B68514A936085E0514BF2
S315600025501B68514A514918461DF09DFD78624E4BE5
S315600025601B684B4A936078E04A4B1B6807F11C0274
S31560002570114618461DF0C3FD7862FB69444A9360B4
S315600025806BE0444B1B6807F11802114618461EF0B3
S3156000259014FF7862BB693E4A93605EE03D4B1B6800
S315600025A007F114021146184600F0B2FB78627B69A7
S315600025B0374A936051E0374B1B6807F113021146A7
S315600025C018461FF03AF87862FB7C07EE903AB8EE50
S315600025D0677ADFED336AC6EE877A2D4BC3ED027AF2
S315600025E03BE02C4B1B6807F10C02114618460AF0BB
S315600025F017FB7862FB68264A93602EE0254B1B68C2
S3156000260007F10B02114618461FF017F87862FB7A3D
S3156000261007EE903AB8EE677ADFED216AC6EE877A02
S31560002620C7ED087A386A1AF0F7FA02460B461AF0CE
S3156000263041FA03460C461A46234613A1D1E9000126
S315600026401AF0BAF803460C46184621461AF0BCFA48
S3156000265002460F4B9A6000E000BF7B6A002B04D0F5
S31560002660796A062005F036FF07E0094805F04EFF57
S3156000267003E00C49172005F02DFF00BF2C37BD463F
S3156000268090BD00BFAFF300800000004A78DEB14124
S315600026903C2D00208C59002010000020544500205D
S315600026A02CBE674D16FCFFFF90B5B3B000AFF86067
S315600026B087ED020AC7ED010A97ED027AD7ED017A36
S315600026C0B4EEE77AF1EE10FA01DD112317E3BE4BA3
S315600026D0C7F8C430FB6893F89930012B02D1BB4B25
S315600026E0C7F8C43097ED017AD7ED027A77EE677A4C
S315600026F0C7ED277A97ED277AD7ED317AB4EEE77A88
S31560002700F1EE10FA0FDD97ED027AD7ED317A77EEBA
S31560002710277AC7ED017A97ED017AD7ED027A77EEDF
S31560002720677AC7ED277AF8681DF08BF8C7F89800C6
S31560002730D7F89830002B02D0D7F89830DFE2FB68E4
S31560002740BA68C3F8C820FB687A68C3F8CC20FB680F
S3156000275093F89930012B0AD14FF000039C4CC7E9DE
S315600027602E344FF000039B4CC7E92C340AE04FF03F
S3156000277000034FF00004C7E92E344FF00003964C77
S31560002780C7E92C34D7E92C234FF0000093491AF09F
S3156000279013F803460C461846214625F031FD0346DC
S315600027A0C7F89430B8681AF037FA03460C46C7E99A
S315600027B0223478681AF030FA03460C46C7E92034AA
S315600027C0FB68D3F8B43018461AF026FA03460C466E
S315600027D0C7E91E347AA4D4E900341A462346D7E9F9
S315600027E02C0119F05FFF03460C46C7E91C3474A13F
S315600027F0D1E900014FF00002794B19F053FF03460F
S315600028000C46C7E91A34D7E91C23D7E92E0119F01B
S3156000281049FF03460C46C7E91834D7E91E23D7E9B2
S3156000282022011AF071F803460C4618462146D7E98C
S315600028301A2319F0C1FF03460C4644EC173BB0EE71
S31560002840470AF0EE670A18F015FE87ED2A0B4FF07F
S315600028500002644BD7E92A0125F052FD0346002B9E
S3156000286004D04FF000035F4CC7E92A340023FB75A0
S3156000287007F117031A464321F8681DF039FFFB7DFF
S31560002880184625F022FD03460C461A462346D7E92C
S315600028902A011AF00FF903460C46C7E91634D7E940
S315600028A0160125F0CDFC034687F8573097F8573068
S315600028B01946F8681EF044FDD7E91A23D7E92A01BC
S315600028C019F0F0FE03460C461A462346D7E91E0168
S315600028D01AF0F0F803460C46C7E91234D7E912231A
S315600028E0D7E9220125F037FD0346002B02D0D7E950
S315600028F0223401E0D7E91234C7E92234D7F89400CC
S3156000290025F0DAFCD7E92E2319F0FEFF03460C46C4
S31560002910184621464FF000022F4B19F0F5FF03468B
S315600029200C4618462146D7E91C2319F0BBFE034620
S315600029300C4618462146D7E912231AF0BBF803461F
S315600029400C461A462346D7E9200125F0D9FC0346F2
S31560002950002B02D0D7E9203422E0D7F8940025F086
S31560002960ABFCD7E92E2319F0CFFF03460C46184679
S3156000297021464FF00002184B19F0C6FF03460C467D
S3156000298018462146D7E91C2319F08CFE03460C46EF
S3156000299018462146D7E912231AF08CF803460C46EE
S315600029A0C7E92034D7E92223D7E9200125F0D3FCF3
S315600029B00346002B18D0D7E9203417E0AFF3008028
S315600029C04ADE5F0763567A3F52061E4186BB1A414E
S315600029D000001040000020400000F03F00009840DA
S315600029E0000058400000F0BFD7E92234C7E9203420
S315600029F0C5A4D4E90034C7E91034D7E91223D7E96E
S31560002A00220119F081FF03460C4618462146D7E994
S31560002A101C2319F0D1FE03460C46C7E90E3497ED28
S31560002A200E0B18F0DDFC54EC103B1A462346D7E932
S31560002A300E0119F069FF03460C46C7E90C3497EDA1
S31560002A400C0B25F023F854EC103B1A462346D7E9C5
S31560002A50100125F080FC0346002B13D097ED0E0B7A
S31560002A6018F0BEFC51EC100BD7E92E231AF022F8B1
S31560002A7003460C461846214625F0E2FB0346C7F896
S31560002A80A43012E097ED0E0B18F0F4FC51EC100B2D
S31560002A90D7E92E231AF00EF803460C46184621464F
S31560002AA025F0CEFB0346C7F8A430D7E91223D7E951
S31560002AB0200119F029FF03460C4618462146D7E93E
S31560002AC01C2319F079FE03460C46C7E90E3497EDD0
S31560002AD00E0B18F0CFFC54EC103B1A462346D7E990
S31560002AE00E0119F011FF03460C46C7E90C3497ED49
S31560002AF00C0B24F0CBFF54EC103B1A462346D7E967
S31560002B00100125F028FC0346002B13D097ED0E0B21
S31560002B1018F0B0FC51EC100BD7E92E2319F0CAFF60
S31560002B2003460C461846214625F08AFB0346C7F83D
S31560002B30A03012E097ED0E0B18F052FC51EC100B22
S31560002B40D7E92E2319F0B6FF03460C4618462146F0
S31560002B5025F076FB0346C7F8A030D7F8A40025F029
S31560002B60B4FBD7E92E2319F0CFFE03460C46184670
S31560002B702146D7E91C2319F095FD03460C461A46F3
S31560002B802346D7E9120119F095FF03460C46C7E9BB
S31560002B900A34D7F8A00025F098FBD7E92E2319F060
S31560002BA0B3FE03460C4618462146D7E91C2319F0A6
S31560002BB079FD03460C461A462346D7E9120119F0F9
S31560002BC079FF03460C46C7E90834FB6893F89930E9
S31560002BD0012B1AD1FB68D7F8A420C3F8D020FB6874
S31560002BE0D7F8A020C3F8E020D7E90A0119F0ECFF76
S31560002BF00246FB68C3F8C020D7E9080119F0E4FF74
S31560002C000246FB68C3F8C4203DE0D7F8A4309A08B2
S31560002C10FB68C3F8D020D7F8A0309A08FB68C3F8E1
S31560002C20E020D7F8A43003F00302FB68C3F8DC2089
S31560002C30D7F8A03003F00303002B0BD1FB6800220A
S31560002C40C3F8EC20FB68D3F8E0305A1EFB68C3F883
S31560002C50E02008E0D7F8A03003F00303C3F10402D4
S31560002C60FB68C3F8EC20D7E90A0119F0ADFF02460C
S31560002C70FB68C3F8C020D7E9080119F0A5FF024632
S31560002C80FB68C3F8C420FB68D3F8D0301946F868EF
S31560002C901EF0C6FBFB68D3F8E0301946F8681EF0F4
S31560002CA0EBFBFB6893F89930002B12D0FB68D3F8E6
S31560002CB0E020FB68D3F8D030D31A0133FA68D2F833
S31560002CC0942002FB03F35B00FB61FB68FA69DA653B
S31560002CD011E0FB68D3F8E020FB68D3F8D030D31A54
S31560002CE00133FA68D2F8942002FB03F39B00BB61C0
S31560002CF0FB68BA69DA65F8681CF0B9FD0023184606
S31560002D00CC37BD4690BD00BF2D431CEBE2361A3F63
S31560002D1090B58BB000AF7860396000237B8200236A
S31560002D203B820023FB7307F11203194678681EF095
S31560002D30EFF907F11003194678681EF063FA07F198
S31560002D400F03194678681EF0BFF9FB7B1A4601230C
S31560002D50934087F827300023BB8107F10C0319469F
S31560002D6078681EF060F80023FB7207F10B031946C2
S31560002D7078681EF031F83B8A1A467B8AD21A97F831
S31560002D80273092FBF3F307EE903AF8EEE77AC7ED59
S31560002D90087ABB8907EE903AB8EEE77AD7ED087AFB
S31560002DA027EE277AFB7A07EE903AF8EEE77A67EE37
S31560002DB0277AC7ED077A0023BB7207F10A03194623
S31560002DC078681EF03AFCBB7A184625F075FA034619
S31560002DD00C461A46234610A1D1E9000119F0ECFC15
S31560002DE003460C461846214619F0EEFE0346BB61C3
S31560002DF0F7EE006A97ED067AC6EE877A97ED077A60
S31560002E0067EE277AC7ED057A3B687A691A60002310
S31560002E1018462C37BD4690BD00000080C5F7AC4112
S31560002E20F0B58DB000AF78600023FB7707F11F0324
S31560002E30194678681DF0D0FF0023BB7707F11E03A3
S31560002E4070223E2178681EF0C6F800237B7707F172
S31560002E501D032022342178681EF0BDF8FB7F1C46D6
S31560002E60BB7F184625F031FA02460B4643EC112B20
S31560002E709FED870B01F07CF956EC105B7B7F184663
S31560002E8025F023FA02460B4643EC112B9FED800B8F
S31560002E9001F06EF953EC102B2846314619F002FC0E
S31560002EA002460B461046194625F0CAF90346B4FB9E
S31560002EB0F3F203FB02F3E31A002B01D01623E0E0E2
S31560002EC000233B7707F11C031A461C2178681DF026
S31560002ED00FFC3B7F002B01D00123D2E00023FB7661
S31560002EE007F11B03194678681EF0A7FB0023BB7623
S31560002EF007F11A031A462D2178681DF0F9FBFA7E50
S31560002F00BB7E9A4201D21723BBE000233B8300239A
S31560002F10FB8200237B7507F11803194678681EF05B
S31560002F20F7F807F11603194678681EF06BF907F192
S31560002F301503194678681EF0C7F87B7D1A4601238B
S31560002F40934087F82F3000237B8207F112031946DE
S31560002F5078681DF068FFFB8A1A463B8BD21A97F891
S31560002F602F3092FBF3F3013B07EE903AF8EEE77AE7
S31560002F70C7ED0A7A6FF07F437B62FB7F7A8A02FB3A
S31560002F8003F307EE903AB8EEE77AD7ED0A7A27EEC2
S31560002F90277A7B6A07EE903AF8EE677AB4EEE77ABC
S31560002FA0F1EE10FA01DD18236BE000237B7407F164
S31560002FB011033022732178681EF00DF87B7C013393
S31560002FC0DBB25B00DBB27B7400233B7407F110035A
S31560002FD03822492178681DF0FEFF3B7C002B06D025
S31560002FE03B7C013B012202FA03F3DBB23B74002314
S31560002FF0FB7307F10F030722492178681DF0EBFF89
S31560003000FB7B0133DBB2FB73FB7B3A7C02FB03F396
S315600030107A7C02FB03F33B620023BB7307F10E036A
S315600030200C22342178681DF0D6FFBB7B1A4601233B
S315600030309340DBB2BB73BB7B1A463B6A03FB02F36E
S31560003040FA7E934201D319231BE000237B7307F1B9
S315600030500D031A460E2178681DF04AFBFB7E1A4660
S3156000306013465B02991A7B7B5A1C13465B0013441A
S3156000307091FBF3F31A463B6A934201D91A2300E0A7
S31560003080002318463437BD46F0BD00BFAFF300805D
S3156000309000000000000000402DE9F04393B000AF4F
S315600030A0F860B9603B601346FB7100237B62FB6886
S315600030B01B6EDB0E03F00703794AD35C1A463B6846
S315600030C0B3FBF2F33B624FF0FF337B63FF23BB63DB
S315600030D0FB79032B41D170A4D4E90034C7E90A34E3
S315600030E0D7E90A34DD1844EB0406C7E90A563B6A99
S315600030F04FF000041A462346D7E90A0124F0C5FFBB
S3156000310003460C46C7E90A3463A4D4E90034C7E928
S315600031101034D7E910562B4634464FF000014FF075
S315600031200002220242EA136219020B46144613EBAE
S31560003130050844EB0609C7E910893B6A4FF00004AD
S315600031401A462346D7E9100124F09FFF03460C4632
S31560003150C7E9103401237B6231E04FA4D4E900341F
S31560003160C7E90A343B6A4FF000041A462346D7E99A
S315600031700A0124F08AFF03460C46C7E90A3446A4CE
S31560003180D4E90034C7E91034D7E910124FF00003D0
S315600031904FF00004140244EA11640B02C7E91034CC
S315600031A03B6A4FF000041A462346D7E9100124F023
S315600031B06CFF03460C46C7E9103400237B62BB688C
S315600031C04FF00004D7E90A12A24208BF994207D31A
S315600031D0FB791A460021F8680EF0BAFFBB6A53E025
S315600031E00023FB6343E02CA4D4E90034C7E906342A
S315600031F0FA6B7B6A134401334FF00004FA6903FBF0
S3156000320002F1BA6904FB02F20A44B969A1FB03340C
S3156000321022441446C7E90634C7E906343B6A4FF0D0
S3156000322000041A462346D7E9060124F02EFF03461A
S315600032300C46C7E90634BB684FF00004D7E90612AE
S31560003240A24208BF99420FD3BA69BB68D31A7B61A1
S315600032507A6B7B699A4207D97B697B63FB6BBB633D
S31560003260D7E90634C7E91034FB6B0133FB63FB6BAC
S31560003270FF2B02D87B6B002BB5D1FB791A46B96B55
S31560003280F8680EF065FF3B6C18464C37BD46BDE8E6
S31560003290F08300BFAFF3008000CA9A3B00000000D5
S315600032A060C30260FFFFFFFF90B585B000AF786036
S315600032B087ED000A7B6807EE903AF8EEE76A97EDCD
S315600032C0007AC6EE877AC7ED037AF86819F0A4FC2F
S315600032D00FA3D3E9002319F0E5F903460C46184617
S315600032E021464FF000024FF0804319F065FA03461D
S315600032F00C461846214619F067FC0346BB60BB685E
S3156000330007EE903AB0EE670A1437BD4690BD00BF2F
S315600033100000004A78DEB141B0B584B000AF786095
S3156000332039607B68002B01D10123EDE07B68DB69A6
S315600033305B00FB6009E0FB689B003A6813444FF052
S3156000334000021A60FB680133FB607B685B685B00A8
S31560003350FA689A42EFDB7B689B68002B09D17B6831
S3156000336003F128007B685B68DB001A46396824F045
S3156000337086FA7B6803F5C1607B6819687B685B6861
S315600033801A4621F047FC0023FB6009E0FB689B00BE
S315600033903A6813444FF000021A60FB680133FB6021
S315600033A0FB68372BF2DD7B689B68182B3EDC0023BD
S315600033B0FB6034E07A68FB680A339B0013441B6841
S315600033C0184619F029FC52A3D3E9002319F06AF9CB
S315600033D003460C4625461C46FB689B003A68134428
S315600033E01B68184619F018FC4BA3D3E9002319F0A3
S315600033F059F902460B462046294619F05BFB0346FF
S315600034000C461846214619F0DFFB01467A68FB68D0
S315600034100A339B0013441960FB680133FB607B68C9
S315600034205B685B00FA689A42C4DB3DE00023FB60A0
S3156000343034E07A68FB680A339B0013441B681846BD
S3156000344019F0EAFB36A3D3E9002319F02BF90346FA
S315600034500C4625461C46FB689B003A6813441B686D
S31560003460184619F0D9FB30A3D3E9002319F01AF9ED
S3156000347002460B462046294619F01CFB03460C46BD
S315600034801846214619F0A0FB01467A68FB680A33A4
S315600034909B0013441960FB680133FB607B685B68C3
S315600034A05B00FA689A42C4DB0023FB6017E0FB68A6
S315600034B09B003A68134493ED007A7A68FB680A3396
S315600034C09B001344D3ED007AFB689B003A68134473
S315600034D077EE677AC3ED007AFB680133FB607B6841
S315600034E05B685B00FA689A42E1DB7B6803F5C16062
S315600034F07B681B685A1E7B685B68396821F053FBE2
S31560003500786822F008FD002318461037BD46B0BD26
S315600035109A9999999999E93F989999999999C93FE9
S31560003520666666666666EE3FA09999999999A93F1F
S315600035302DE9F047F7EE007A2DED048BF4EE670A7D
S31560003540F1EE10FA82B0F0EE608A1AD0B5EEC00ADB
S31560003550F1EE10FA33D8B5EE400AF1EE10FA15D155
S31560003560F5EEC00AF1EE10FA00F2BC80944BF5EE6F
S31560003570400A2122F1EE10FA1A6000F019819FEDDF
S31560003580910A02B0BDEC048BBDE8F087FDEEE07AEF
S31560003590B1EE400A17EE90AA0AF0010AF0EE007A40
S315600035A0F4EE678AF1EE10FA0CD1DFED877AB4EEAD
S315600035B0E70AF1EE10FA05D520EE000AE1E74FF0D2
S315600035C0000AEBE701A818F0D7FF10EE100A19F011
S315600035D023FB79A3D3E900230F46064624F0E6FED3
S315600035E0002814BF08240024784D04F1040805EB74
S315600035F0C80132463B46D1E9000124F002FF0028AB
S3156000360018BF444604F1020805EBC80132463B4642
S31560003610D1E9000124F0F5FE002818BF444605EB09
S31560003620C403D3E90289304642464B46394619F00F
S315600036306BF919F0C9FA07EE900A32463B464046E6
S31560003640494637EEA78A19F035FA19F0BDFA07EE42
S31560003650900A88EE279A0198C4EB001001389FED16
S315600036605C7A9FED5C8A69EE097AA7EE878A28EE16
S31560003670278A07EE900AFAEECE7A28EE098A17EEC6
S31560003680900A19F0C9FADFED547AA8EE278A064641
S315600036900F46A9EE278A78EE097A17EE900A19F096
S315600036A0BBFA02460B463046394619F003FA06461F
S315600036B018EE900A0F4619F0AFFA02460B463046EE
S315600036C0394618F0EFFF0022444B06460F4618F0C5
S315600036D0E9FF24F095FD10F5006F804605DA384B5A
S315600036E022221A609FED3E0A4BE707EE900AF8EE3B
S315600036F0E77A0028B4BF00F10F04041117EE900AB0
S31560003700B4BF2411013419F087FA0022354B18F042
S31560003710C9FF02460B463046394619F0F5F819F0EE
S3156000372053FA9FED317ADFED316A07EE900AE7EEE4
S31560003730876AC8EB041805EBC8089FED2D7AA6EEDC
S31560003740A77ADFED2C6AE7EE276A9FED2B7AA6EE65
S31560003750A77A67EE277A17EE900A19F05DFA0022CB
S31560003760264B19F0A7F9D8E9002318F09BFF19F04A
S315600037702BFA00EE100A01A818F0FEFE019820440C
S31560003780802809DD0E4B22221A60BAF1000F7FF401
S31560003790F6AE9FED1B0AF4E610F17D0F9FDB18F085
S315600037A015FFBAF1000F3FF4ECAEB1EE400AE8E661
S315600037B0B0EE670AE5E600BFCD3B7F669EA0E63FBA
S315600037C0307D0020000080FFA95F63589885026005
S315600037D000E84C3CAAAAAA3DEDA8E23E00003040B3
S315600037E0000000000000B03F1815AB3A4B8D1D3C41
S315600037F03758633DF0FD753E1872313F0000F03F6B
S315600038000000807FFFFFFFFF2DE9F04F2DED048B59
S31560003810D1E900679DB01446069347F6F07333EA24
S3156000382017430590DDF8ACA00C9607972BD10023C3
S31560003830E370C7F3130333434FF06E031DD1692260
S315600038406370002F4FF066032270A37009DAB24BE3
S315600038502A9A0325136028461DB0BDEC048BBDE88B
S31560003860F08F069B9C0706D4AC4A13F0040FAC4B52
S3156000387008BF1346ECE7AB4BEAE761222370A370FF
S315600038806270A64BE4E7059B23F02003412B00F012
S31560003890BB82002200233046394624F031FD0028E1
S315600038A042D007F100430C9A1F460123164609933E
S315600038B0002200233046394624F00BFD002840F0F4
S315600038C09D820FA847EC106B00F002FF0F9840F244
S315600038D02D154543A5F5AB5B4FF47A738DED100B53
S315600038E0ABF11C0B9FED820B9BFBF3FBABEB00007C
S315600038F000F022FF41F294139D428DED1A0B15DC08
S315600039007DA3D3E90023CDE91623CBF10005EDB104
S31560003910E80711D4DDE91601DDE9162318F0C2FEC9
S315600039206D10CDE91601F3E70990C1E77E4B0022E1
S31560003930CDE916235D46EAE7DDE91601DDE91A23DE
S3156000394018F0B0FE012DCDE91A01E3D1DDE91001D1
S31560003950DDE91A2318F030FF0FF2A419D9E90089BE
S31560003960CDE91201714F0026DDE9120142464B4650
S3156000397024F0C6FC002840F093800FF28C19D9E938
S3156000398000896A4F0026DDE9120142464B4624F063
S3156000399038FD002840F09780DDE9120124F030FC04
S315600039A09FED5B8B8BEAEB739FED539BA3EBEB7306
S315600039B005460D93284624F07FFC0F9EABEB06066A
S315600039C041EC100B304600F0B7FEBBF1000F8DEDF9
S315600039D0120B8DED148B80F2AD808DED169B8DED07
S315600039E0188BDDE91689DDE91601DDE918674FF008
S315600039F0000842464B4618F087FF32463B4619F0B0
S31560003A0059F8CDE91801CDE916890022464BDDE962
S31560003A10160118F047FE02460B460020444918F08E
S31560003A2073FF0022404B18F0C7FECDE918010D9BCD
S31560003A300893089BD90700F18F80DDE91623DDE93D
S31560003A401889DDE918671046194619F033F84246B9
S31560003A504B4619F02FF832463B4618F023FECDE967
S31560003A601801DDE91601DDE9162318F01BFECDE924
S31560003A701601DDE91689DDE91601DDE918674FF003
S31560003A80000842464B4618F03FFF3B46324619F067
S31560003A9011F8089BCDE918015B10CDE91689C7E7D7
S31560003AA0DDE9120132463B4618F0FCFDCDE9120114
S31560003AB0DDE91A0132463B4618F07EFE0BF1FF3B0C
S31560003AC0CDE91A0150E7DDE9120132463B4618F0AE
S31560003AD073FECDE91201DDE91A0132463B4618F064
S31560003AE0E1FD0BF1010BCDE91A014CE7AFF3008064
S31560003AF0000000000000F03F9A9999999999C93F92
S31560003B0000000000006AF8400000000080842E413A
S31560003B1000000000000000004538046014380460AE
S31560003B20FB37046015380460000014400000244030
S31560003B300000F03F9FEDBC7B8DED167B8DED188B05
S31560003B407FF475AFDDE91201DDE9102324F02EFC68
S31560003B50002844D1013D2DE79DED127BDDE91889F2
S31560003B60DDE91601DDE91823DDE914678DED0A7BD1
S31560003B7018F0A0FF32463B4618F094FD42460646D2
S31560003B800F464B46DDE90A0118F08CFD02460B46EE
S31560003B903046394618F08EFFCDE91401DDE916018D
S31560003BA0DDE9122318F07EFDCDE91201DDE9128907
S31560003BB0DDE91201DDE914674FF0000842464B4625
S31560003BC018F0A2FE3B46324618F074FF089B012BA4
S31560003BD0CDE91401CDE912897FF42FAFB2E7DDE9B3
S31560003BE01223DDE9100118F08FFECDE91001DDE941
S31560003BF01423DDE9100118F087FECDE91001DDE937
S31560003C001A23DDE9100118F0D7FDCDE91001DDE9D1
S31560003C10100190A3D3E9002318F044FDCDE910010B
S31560003C20DDE9100124F0ECFADDE91067804624F046
S31560003C3043FB02460B463046394618F065FE85A3BF
S31560003C40D3E9002318F02EFDCDE91001DDE910015E
S31560003C5024F0D6FA0646002EC0F29C80744B9E4233
S31560003C6000F39F80B8F1000FC0F2A280704B9845B8
S31560003C7000F3A4806F4A954200F3A6806E486F4BAE
S31560003C80B8FBF3F20A21B6FBF3F300FB028800FBF4
S31560003C90036601FB052501FB08384E430BF1FF3B2C
S31560003CA02146302701F8067B284623F027FF04F1DA
S31560003CB00C01404623F022FF04F11201304623F046
S31560003CC01DFF00232375099BE7740BF1050B43EA7F
S31560003CD08B0B002B00F09A80594B2A9ADAF8005029
S31560003CE01360059B3BF0010B48BF0BF1030B612B87
S31560003CF04FEAAB0B00F0398100F3B080452B00F042
S31560003D00B780472B04D0412B00F02F8167230593A2
S31560003D10069B002D43F400630693DCBF0123CAF8BB
S31560003D200030DAF800101129A8BF112101312046B0
S31560003D3023F0BDFEDAF8003083445B4540F3FF8133
S31560003D401BF1040FC0F2FB810BF101029B1ACAF84A
S31560003D500030069ADAF80030BBF1000F02F4006614
S31560003D6080F27881CBF100075A1CBA4280F23B811F
S31560003D70302323702E2363702D9ADAF80030136097
S31560003D8002252D9B1B68002B40F388813E236355DB
S31560003D90013583E106F5742606F5107608F1FF38DD
S31560003DA059E7A6F57426A6F5107608F1010856E7D8
S31560003DB008F5742808F51078013D53E7A8F57428CE
S31560003DC0A8F51078013552E79D427FF769AF6FF02D
S31560003DD009031C480A2295FBF2F103FB015500FB1F
S31560003DE0058595FBF2F803FB085300FB0366053671
S31560003DF00BF1010B96FBF2F60D4651E700266FF0CC
S31560003E00040BB04635464BE74FF0000B069B9A070E
S31560003E1006D40D4A13F0040F0C4B08BF13465CE73B
S31560003E200B4B5AE7AFF3008000000000000014401F
S31560003E303F420F009F8601006079FEFFA086010069
S31560003E404538046040420F0014380460FB37046054
S31560003E50153804600000000080842E41059B662BA7
S31560003E603FF477AF672B3FF453AF652B7FF44EAFCC
S31560003E70DAF80030112B05DD2D9A113B1360112302
S31560003E80CAF80030069BDAF8005013F4006605F1B4
S31560003E90020504D12946204623F009FE834463784F
S31560003EA02370069BDAF8002023F4FE6323F00703F1
S31560003EB01B051B0D13431CBF2E2363702D9B1B68B4
S31560003EC008BF0125002BC2BF3E236355013576B17D
S31560003ED0069B1B070BD46219151B12F8013D302B8C
S31560003EE0FAD03E2BF8D02E2B08BF05F1FF35BBF17B
S31560003EF0000F05F10102B8BFCBF1000B059B6355BE
S31560003F00B4BF2D212B21BBF57A7F05F10203A154A5
S31560003F100ADB4FF47A72BBFBF2F202F13001E15434
S31560003F208A4B03FB02BBEB1CBBF1630F0ADD642209
S31560003F309BFBF2F202F13001E1546FF0630101FB89
S31560003F4002BB01330A229BFBF2F2D2B202F13001CC
S31560003F50E1549D1C1C44C2EB42130BF1300BC2EBC7
S31560003F6083020BEB4202627075E4079B0C98C3F305
S31560003F700A56C3F31301F6B1A6F2FF33069A02F0AE
S31560003F8008022A431DD172487249059D002E0CBF56
S31560003F9030223122612D08BF0146204617F0B6FA5D
S31560003FA06D4A6E4B079933EA210328BF13462A9A56
S31560003FB0054613604FE450EA0103694B08BF0023CE
S31560003FC0DCE7CDE900010293664867492B46059D0B
S31560003FD0002E0CBF30223122612D08BF01462046DB
S31560003FE017F094FADCE75B449D1C122DC1BF2D9A35
S31560003FF0113B1360132576B92946204623F057FDF9
S3156000400048B17FEA0B0705F1010504D16378237097
S315600040102E236370B5E6012F04EB05030CD11A1B42
S31560004020002A02DC01353023F1E713F801299A7082
S31560004030F5E713F80129DA701A1B002AF9DC302338
S3156000404023702E2363703C23A3702C9B013F0235A3
S315600040501F6096E60BEB0307BD1C122D53DD9EBB5E
S315600040601321204623F023FD70B30BF1010B1425B9
S315600040706B1E5B452ADD631E04EB0B02997803F821
S31560004080011F9A42FAD12E235370DAF800302D9A26
S315600040905B44113B1360002B7FF478AE069B03F004
S315600040A00803002E45D0002B7FF4D5AB6219151B93
S315600040B012F8013D302BFAD03E2BF8D02E2B7FF430
S315600040C0CAAB013DFFF7C7BB1325D1E7631C621975
S315600040D013F8011B03F8021C9A42F9D13C2302F83B
S315600040E0013CABEB050B2C9A0BF1020313602E22FD
S315600040F06255DAF800206B1CCAB12D990A603E221F
S315600041000235E254CAE73EB92946204623F0CFFC81
S3156000411010B10BF1010BFD1C631EA3449A7803F8E2
S31560004120012F9B45FAD12E238BF80130B6E71D4649
S31560004130B4E7DAF8002013437FF48DABC1E7013BA7
S31560004140CAF80030059B023B059391E618FCFFFF19
S31560004150173804601F3804604538046014380460FA
S3156000416001FCFFFF2738046036380460FFFFFFFF5D
S315600041702DE9F04F5BEC11AB8BB000223E4B11EE9C
S31560004180100A594655EC104B24F0A3F828BB0022C0
S3156000419000232046294624F009F900285FD0002232
S315600041A000232046294624F094F80022D0B100234B
S315600041B05046594624F0FAF8002800F0A0812F4BAB
S315600041C021221A60504600220023594624F081F8C5
S315600041D0002840F052822A4D002445EC104B0BB06B
S315600041E0BDE8F08F274B5046594624F089F898B9B8
S315600041F01DA3D3E900235046594624F0ACF858B9BC
S315600042005946504623F0FCFF064624F055F85246C0
S315600042105B4624F05EF818B9184B21221A60DAE77B
S3156000422005F100431D4606F00103019300224FF09D
S3156000423080435046594624F04CF828B30CA3D3E982
S3156000424000232046294624F05BF8E8B122462B4637
S315600042502046294618F026FA04460D46BDE7019029
S31560004260E4E700BFAFF300800000C0FFFFFFDF415F
S31560004270408CB5781DAF15440000F03F307D0020BE
S315600042800000F0FF0000E0C145EC104B09A800F00B
S3156000429083FA57EC106B10EE100AACA3D3E9002337
S315600042A0394624F083F8002814BF08240024A04D62
S315600042B004F1040805EBC80132463B46D1E900012A
S315600042C024F09FF8002818BF444604F1020805EB65
S315600042D0C80132463B46D1E9000124F092F8002835
S315600042E018BF444605EBC405D5E902893046424607
S315600042F04B46394618F008FB8E4B621003EBC2033F
S31560004300D3E9002318F000FB0022CDE902018A4BB5
S315600043103046394618F0C6F9002206460F46864BE7
S315600043204046494618F0BEF902460B4630463946C5
S3156000433018F0C0FB02460B46DDE9020118F03CFAB4
S3156000434002460B468046894618F0ACF96EA3D3E95F
S31560004350002306460F4618F0A5F96DA3D3E900239E
S3156000436018F0A8FB32463B4618F09CF96AA3D3E9DD
S31560004370002318F09FFB32463B4618F093F968A37A
S31560004380D3E9002318F096FB32463B4618F08AF9CB
S3156000439042464B4618F086F963A3D3E90023CDE97C
S315600043A0060118F07FF906460998C4EB001001383B
S315600043B00F4623F081FF0022604B18F073F900224C
S315600043C05F4BCDE902015046594618F06BF923F070
S315600043D017FF23F071FF0022584B18F063F952A3C0
S315600043E0D3E90023CDE904014046494618F05AF95D
S315600043F0DDE9062304460D463046394618F05AFB79
S3156000440002460B462046294618F054FB42464B4668
S3156000441018F050FB52465B4618F044F9DDE9042378
S3156000442004460D465046594618F06EFADDE90223F9
S3156000443018F038F902460B462046294618F03AFB32
S3156000444000223F4B04460D4618F02CF923F0D8FEA7
S3156000445023F032FF0022394B18F024F906460F4646
S3156000446002460B462046294618F04EFADDE904233B
S3156000447004460D46DDE9020118F014F932463B4662
S3156000448018F018FB00222E4B8046894618F00AF970
S3156000449023F0B6FE23F010FF0022284B18F002F935
S315600044A0064602460B460F464046494618F02CFA29
S315600044B022462B4618F0FEFA0022214B804689469A
S315600044C018F0F0F823F09CFE23F0F6FE00221B4B5A
S315600044D018F0E8F802460B4604460D463046394663
S315600044E018F0E8FA164B002218F0DCF823F088FE84
S315600044F0144B984206462DDA134B22221A6000248A
S3156000450000256AE6AFF3008028FC4ADBFD783C3F75
S31560004510AC8D272E2449623F0E089E999999893F52
S315600045204D5555555555B53FF80BAE941D55DC3F69
S3156000453020860260A88602600000E03F0000B03F6F
S315600045400000304020C0FFFF307D0020CD3B7F66FD
S315600045509EA0E63F22462B464046494618F0D4F9CF
S315600045600022002304460D4623F0F5FE40B12046A6
S3156000457029460022504B18F0C7F9013604460D460D
S31560004580002EB5BF06F10F084FEA26184FEA281825
S3156000459008F10108494BC6EB081603EBC606204630
S315600045A037A3D3E90023294618F07CF836A3D3E96C
S315600045B0002318F07FFA22462B4618F073F834A3CE
S315600045C0D3E9002318F076FA22462B4618F06AF8EB
S315600045D031A3D3E9002318F06DFA22462B4618F072
S315600045E061F82FA3D3E9002318F064FA22462B461C
S315600045F018F058F82CA3D3E9002318F05BFAD6E933
S31560004600006722462B4618F04DF829A3D3E900230C
S3156000461018F050FA22462B4618F044F832463B46CC
S3156000462018F040F802460B463046394618F042FA12
S3156000463041EC100B09A800F0AFF809984044B0F5BA
S31560004640806F09DD1E4B22221A60019B002B7FF4CE
S31560004650C2AD00241B4DC0E56FF47F739842FFF630
S315600046604BAF00F0CDF8019B55EC104B002B3FF49F
S31560004670B4AD05F100431D46AFE50024124DACE52F
S3156000468080CC92E3DD4EEF3E744C38E07A2F243FC7
S315600046909FCDD7187ED8553F981D136EABB2833F1A
S315600046A06D0203D7086BAC3FCEC482FFBDBFCE3F61
S315600046B0EF39FAFE422EE63F0000B03F20860260E8
S315600046C0307D00200000F07F0000F03FFFFFFFFF1D
S315600046D0F8B555EC104B06460022002310EE100A82
S315600046E0294623F0F6FD20B19FED110B00233360C0
S315600046F0F8BDC5F30A5122462B46A1F2FE3079B9C0
S31560004700C5F31301E70F01F4002547EA4101C1F340
S31560004710130164000DB90138F4E761F3130322460F
S3156000472040F2FE3161F31E53306043EC102BDFE73D
S31560004730000000000000000070B555EC104B064606
S315600047400022002310EE100A294623F0C2FD10B1A4
S315600047509FED0B0B70BDC5F30A53334440F2FE72F6
S31560004760934205DD0A4B22221A609FED070BF1E7A3
S31560004770002BEDDD63F31E5545EC104BEAE700BFF9
S315600047800000000000000000000000000000F07F54
S31560004790307D0020FFFFFFFFF8B555EC104B064655
S315600047A00022002310EE100A294623F092FD20B164
S315600047B09FED110B00233360F8BDC5F30A51224605
S315600047C02B46A1F2FE3079B9C5F31301E70F01F468
S315600047D0002547EA4101C1F3130164000DB90138B0
S315600047E0F4E761F31303224640F2FE3161F31E5390
S315600047F0306043EC102BDFE7000000000000000093
S3156000480070B555EC104B06460022002310EE100AD8
S31560004810294623F05EFD10B19FED0B0B70BDC5F30D
S315600048200A53334440F2FE72934205DD0A4B22225C
S315600048301A609FED070BF1E7002BEDDD63F31E5564
S3156000484045EC104BEAE700BF0000000000000000E6
S31560004850000000000000F07F307D002080B48DB045
S3156000486000AF0346FB7100237B620023BB62324AC2
S3156000487007F1180307CA83E807002F4A07F10C03FC
S3156000488007CA83E80700FB79012B01D800234DE0B6
S31560004890FB79022B02D0FB79032B03D1FB79023B18
S315600048A0FB7112E0FB79062B02D0FB79072B03D153
S315600048B0FB79063BFB7108E0FB790A2B02D0FB799A
S315600048C00B2B02D1FB790A3BFB710023FB621BE0D9
S315600048D0FB6A9B0007F13002134453F8183C002B27
S315600048E00FD0BA6A531CBB62FB6A9B0007F13001AA
S315600048F00B4453F8181C930007F13002134443F835
S31560004900241CFB6A0133FB62FB6A022BE0D9FB794C
S31560004910BA6A9A4201D2002308E0FB799B0007F14C
S315600049203002134453F8243C7B627B6A1846343762
S31560004930BD465DF8047B7047E886026080B586B048
S3156000494000AF0346B9607A60FB73FB7B1846FFF7DE
S3156000495085FF78617B69002B01D101234AE02749F5
S31560004960FB7B9A1E13465B0013445B010B4403F505
S31560004970DA734FF4C0121A607B691B6B43F4804292
S315600049807B691A637B691B6B43F400427B691A631C
S315600049907B6900221A60FB7B0A2B08D0FB7B0B2B02
S315600049A005D0FB7B062B02D0FB7B062B07D17B69F0
S315600049B04FF400225A637B694FF480125A637B6816
S315600049C0002B16D07B691A690D4B13407A681278F2
S315600049D002F00F017A685278120402F470221143D1
S315600049E07A689278120202F470620A431A437B690B
S315600049F01A61002318461837BD4680BD00800D40F9
S31560004A00F0F0F0FF80B588B000AF78600B46FB70C1
S31560004A101346BB70FB785A00BB781344BB61002316
S31560004A20BB600023FB607A68BB6904339B00134458
S31560004A305B6823F01F03FB61A4E0BB68002B0CD10D
S31560004A40FB699B687B617A69524B1340FA69928B6A
S31560004A50C2F30B0292B21343BB60FB695B68DBB2C5
S31560004A605BB2002B03DA4FF0FF33FB600DE0FB69AE
S31560004A70DB69C3F312331A46FB695B68C3F30E4303
S31560004A809BB2D21AFB681344FB607A68BB69043335
S31560004A909B0013445A687968BB690C339B000B44CE
S31560004AA05B689A421CD17A68BB6904339B001344E5
S31560004AB000225A607A68BB690C339B00134400225B
S31560004AC05A607B689A68BB699B01134401229A60AD
S31560004AD07B689A68BB699B0113440022DA600DE02B
S31560004AE07A68BB6904339B0013445B681B6819468C
S31560004AF07A68BB6904339B0013445960FB695B6841
S31560004B00C3F3C033DBB2002B09D17A68BB690433C7
S31560004B109B0013445B6823F01F03002B14D1BB7802
S31560004B20DB01DAB2FB781343DBB23B7400237B74A0
S31560004B307B681B6807F108021146184619F065F98B
S31560004B400023BB600023FB60FB6900225A607B6820
S31560004B501B691A46FB691A607B68FA691A617B6889
S31560004B6093F95430DBB20133DBB25AB27B6883F817
S31560004B7054207A68BB6904339B0013445B6823F056
S31560004B801F03FB61FB69002B7FF457AF00BF203723
S31560004B90BD4680BD00F0FFFF80B58CB000AF786089
S31560004BA07B685B68D3F8AC317B627B6A002B4DD047
S31560004BB0002387F82B3045E097F82B3001229A4086
S31560004BC07B6A1340002B38D07B689A6897F82B3045
S31560004BD05B00DBB29B01134430333B623B6A1B785C
S31560004BE0DB0987F82A3097F82A2097F82B30194680
S31560004BF07868FFF707FF97F82A3083F00103DAB287
S31560004C0097F82B3019467868FFF7FCFE97F82B303B
S31560004C103B753B6AFB6008233B6101237B7597F814
S31560004C202B301946786818F0FBFA7B681B6807F129
S31560004C300C021146184619F0E8F897F82B30013344
S31560004C4087F82B3097F82B30032BB5D97B685B68D8
S31560004C50D3F8BC317B627B685B687A6AC3F8BC2137
S31560004C607B6A002B00F0A781002387F829309DE13D
S31560004C7097F8293001229A407B6A1340002B00F096
S31560004C80908197F829300F2B08D997F82930103B77
S31560004C9087F82B30012387F82A3006E097F8293009
S31560004CA087F82B30002387F82A3097F82B30032BB0
S31560004CB000F2748197F82B305B00DAB297F82A30ED
S31560004CC01344FB770023FB6000233B6197F82B308E
S31560004CD0002B23D197F82A30012B1FD17B689A6865
S31560004CE0FB7F9B01134493F8383003F00203DBB279
S31560004CF0002B13D07B689A68FB7F9B0113441B686B
S31560004D00C3F34073DBB2002B08D17B689A68FB7FE4
S31560004D109B011A44136843F000531360FB7F7A6863
S31560004D2004339B0013445B6823F01F03FB6230E18E
S31560004D30002387F82830FB7F7A6804339B0013448E
S31560004D405B6823F01F03FB6222E0FB6A5B68DBB2F1
S31560004D505BB2002B06DBFB6A5B68C3F3C033DBB276
S31560004D60002B10D0FB6A5B68DBB25BB2002B13DBF7
S31560004D70FB6A5B68C3F3C033DBB2002B0CD0012344
S31560004D8087F8283008E0FB6A1B6823F01F03FB6284
S31560004D90FB6A002BD9D100E000BF97F82830002BC2
S31560004DA003D1FB6A002B40F0FB80FB7F7A680433FB
S31560004DB09B0013445B6823F01F03FB62E5E0FB6A1C
S31560004DC05B68DBB25BB2002B00DAE2E0FB68002BCB
S31560004DD00AD1FB6A9A687A4B1340FA6A928BC2F3DD
S31560004DE00B0292B21343FB60FB6ADB69C3F31233B7
S31560004DF01A46FB6A5B68C3F30E439BB2D21A3B69E1
S31560004E0013443B61FB7F7A6804339B0013445A6802
S31560004E10FB7F79680C339B000B445B689A421CD11C
S31560004E20FB7F7A6804339B00134400225A60FB7F41
S31560004E307A680C339B00134400225A607B689A6838
S31560004E40FB7F9B01134401229A607B689A68FB7F13
S31560004E509B0113440022DA600DE0FB7F7A6804331D
S31560004E609B0013445B681A68FB7F11467A680433BB
S31560004E709B0013445960FB6A5B68C3F3C033DBB2C3
S31560004E80002B09D1FB7F7A6804339B0013445B686F
S31560004E9023F01F03002B16D197F82A30DB01DAB214
S31560004EA097F82B301343DBB23B7500237B757B6829
S31560004EB01B6807F10C021146184618F0A6FF00237E
S31560004EC0FB6000233B61FB6A00225A607B681B69BA
S31560004ED01A46FB6A1A607B68FA6A1A617B6893F9FC
S31560004EE05430DBB20133DBB25AB27B6883F85420AC
S31560004EF0FB7F7A6804339B0013445B6823F01F03CF
S31560004F00FB62FB6A002B40D0FB6A5B68DBB25BB27C
S31560004F10002B3ADA97F82B2097F82A301B011344B6
S31560004F20012202FA03F3BB617B685B68BA69C3F866
S31560004F30B0217B685B68D3F8B821BB691340002B4E
S31560004F4023D100BF7B685B68D3F8B021BB6913408F
S31560004F50002BF7D17B685B68D3F8B821BB69134037
S31560004F60002B12D17B689A68FB7F9B011344FA6A17
S31560004F709A607B689A68FB7F9B0113440022DA6023
S31560004F807B685B68BA69C3F8B021FB6A002B7FF463
S31560004F9016AFFB6A002B7FF4CBAE02E000BF00E0E9
S31560004FA000BF97F82930013387F8293097F8293000
S31560004FB01F2B7FF65DAE00BF3037BD4680BD00BF9C
S31560004FC000F0FFFF80B592B000AFF8607A603B609A
S31560004FD00B46FB72FB7A5B0003F01E03FA7AD2097A
S31560004FE0D2B21343BB62FB7A03F00F02FB7ADB0893
S31560004FF003F010031343012202FA03F37B627B6A18
S315600050003B640023BB633A6843F6FF7313449B0B10
S315600050107B63002387F83330012387F8323000231F
S31560005020FB62FB68002B01D103239CE1FB689A6855
S31560005030BB6A9B01134493F8383003F00103DBB27B
S31560005040002B01D101238EE1FB6893F85630002BCB
S3156000505001D0012387E17B6B002B01D101237B63A8
S3156000506007F1170318461CF0ECFBFB6893F9543004
S315600050701A467B6B934205D9FB7D18461CF002FCF1
S31560005080022370E13B68B3F5804F03D94FF4804348
S31560005090FB6301E03B68FB633A68FB6BD31A3B60DA
S315600050A0FB681B693B623B6A1B681A46FB681A61B0
S315600050B0FB6893F95430DBB2013BDBB25AB2FB6852
S315600050C083F85420BB6B002B01D13B6A7B643B6A3F
S315600050D001221A603B6A00225A607A68BB6B1344ED
S315600050E01A463B6A9A603B6A9B6803F58052A04BFE
S315600050F013403A6AD3603B6ADB6803F580523B6AC9
S315600051001A613B6A1B6903F580523B6A5A613B6AC6
S315600051105B6903F580523B6A9A61FB6BC3F30E03CE
S3156000512099B23A6A536861F31E435360FB6BC3F3EB
S3156000513012013A6AD36961F31E33D3613B6A9B6895
S31560005140C3F30B0399B23A6A938B61F30B039383B0
S315600051503A6AD37F6FF3C713D3773B68002B04D1CA
S315600051603A6A536843F4004353603A6A536880214D
S3156000517061F307035360BA6BFB6B1344BB63FA6856
S31560005180BB6A0C339B0013445B68002B0FD0FA6834
S31560005190BB6A0C339B0013445B683A6A1A60FA6810
S315600051A0BB6A0C339B0013443A6A5A6010E0FA6893
S315600051B0BB6A04339B0013443A6A5A60FA68BB6A56
S315600051C00C339B0013443A6A5A60012387F83330E4
S315600051D03B68002B7FF456AFFB7A03F00F03002B7E
S315600051E041D1FB7ADB09DBB2012B3CD1FB7A03F0C0
S315600051F00F03DBB25B00FB77FB689A68FB7F9B0162
S3156000520013443033BB61FB689A68BB6A9B011344E5
S3156000521093F8383003F00203DBB2002B23D0FB6B2C
S31560005220002B20D0BB69DB881A46FB6B93421AD2EF
S31560005230FB689A68BB6A9B0113441B68C3F30A4305
S315600052409BB21A46FB6BB3FBF2F102FB01F29B1AAF
S31560005250002B08D1FB689A68BB6A9B011A441368E5
S315600052606FF35D73136097F83330002B35D1FB68AD
S315600052705B68D3F8B0217B6A1340002B1FD0FB7D9F
S3156000528018461CF0FFFA00236DE0FB685B68D3F8F4
S315600052904021FB685B6842F48052C3F84021FB689A
S315600052A05B68D3F8B8313B64FB685B68D3F8403120
S315600052B003F48053002B02D0002387F8323097F82E
S315600052C03230002BE1D1FB685B68D3F84021FB6884
S315600052D05B6822F48052C3F8402197F83330002B84
S315600052E004D13A6C7B6A1340002B37D1FB689A680D
S315600052F0BB6A9B0113447A6C9A60FB689A68BB6AC6
S315600053009B0113440022DA60FB685B687A6AC3F823
S31560005310B02119E0FB6A0133FB62FB6A154A9342CE
S3156000532005D1FB7D18461CF0ADFA01231BE0FB6836
S315600053305B68D3F8BC217B6A1340002B0DD1FB68F8
S315600053405B687A6AC3F8B021FB685B68D3F8B821FA
S315600053507B6A1340002BDDD000E000BFFB7D184662
S315600053601CF090FA002318464837BD4680BD00BF42
S3156000537000F0FFFF8096980080B485B000AF78603B
S315600053800023FB7315E0FB7B0F4AD35C002B0DD12A
S31560005390FB7B0D4A0121D1547B68FA7B1A70FB7B3B
S315600053A05C2202FB03F3094A134406E0FB7B0133EC
S315600053B0FB73FB7B002BE6D0002318461437BD46F3
S315600053C05DF8047B704700BF5C0E0020000E002075
S315600053D080B588B000AF0346B9607A60FB73324A25
S315600053E007F1140392E8030083E80300FB7B012BBB
S315600053F003D9FB7B023B012B01D9062350E007F161
S3156000540013031846FFF7B8FFF861FB7C5B02274A77
S315600054101A44FB69DA60FB7CDB02254A1A44FB69A5
S315600054209A60FB69FA7B83F85720FB7B023B9B0003
S3156000543007F12002134453F80C3C1A46FB695A6084
S31560005440FB695B68D3F82431DBB203F01F03DAB281
S31560005450FB6983F85520FB6993F85530032B01D817
S3156000546001231DE0FB69BA681A60FB695B68D3F8C3
S31560005470A821FB695B6822F00302C3F8A821FB69D7
S315600054805B68D3F8A821FB695B6842F00202C3F847
S31560005490A821F86917F0DCFB7B68FA691A600023BB
S315600054A018462037BD4680BDF4860260000C002099
S315600054B00008002080B485B000AF78607B68BB6070
S315600054C07B68002B01D103232FE00023FB730FE0E1
S315600054D0FB7B5C2202FB03F3174A1344BA689A42C9
S315600054E003D1FB7B154A0021D154FB7B0133FB734F
S315600054F0FB7B002BECD0BB685B680022C3F84821BD
S31560005500BB685B68D3F84021BB685B6822F0010228
S31560005510C3F84021BB685B68D3F84021BB685B6811
S3156000552042F00202C3F84021002318461437BD46F4
S315600055305DF8047B704700BF000E00205C0E002003
S3156000554080B58AB000AF78600B46FB707B683B62C3
S31560005550FB7803F00F02FB78DB0803F010031343BC
S31560005560012202FA03F3FB61FB785B00DBB203F016
S315600055701E03DAB2FB78DB09DBB21343FB767B688A
S31560005580002B01D10323E5E007F10B0318461CF05D
S3156000559058F90023FB604FF0FF333B61FB7E3A6AAC
S315600055A004339B0013445B6823F01F037B6209E0AE
S315600055B07A6AD37F43F08003D3777B6A1B6823F0D4
S315600055C01F037B627B6A002BF2D1FB7E3A6A04334F
S315600055D09B0013445B6823F01F037B629EE07B6A3B
S315600055E0DB7F23F07F03DBB2002B00F09C807B6ABD
S315600055F05B68DBB25BB2002B1ADA3B6A5B68D3F896
S31560005600B4113B6A5B68FA690A43C3F8B42100BF08
S315600056103B6A5B68D3F8B421FB691340002BF7D172
S315600056203B6A5B68D3F8B821FB691340002BE4D171
S31560005630FB68002B0AD17B6A9A68484B13407A6AEA
S31560005640928BC2F30B0292B21343FB60FB7E3A6A03
S3156000565004339B0013445A68FB7E396A0C339B0003
S315600056600B445B689A420ED1FB7E3A6A04339B0018
S31560005670134400225A60FB7E3A6A0C339B00134443
S3156000568000225A600DE0FB7E3A6A04339B001344A5
S315600056905B681A68FB7E11463A6A04339B001344C2
S315600056A059607B6A5B68C3F3C033DBB2002B09D1F8
S315600056B0FB7E3A6A04339B0013445B6823F01F0346
S315600056C0002B0DD1FB783B7500237B753B6A1B680D
S315600056D007F10C021146184618F097FB0023FB6091
S315600056E07B6A00225A603B6A1B691A467B6A1A60AB
S315600056F03B6A7A6A1A613B6A93F95430DBB20133CA
S31560005700DBB25AB23B6A83F85420FB7E3A6A0433B2
S315600057109B0013445B6823F01F037B627B6A002B4C
S315600057207FF45DAF00E000BF7B6A002B0DD13B6A62
S315600057309A68FB7E9B01134401229A603B6A9A68D1
S31560005740FB7E9B0113440022DA60FB7A18461CF04C
S3156000575099F8002318462837BD4680BD00F0FFFF44
S3156000576080B58AB000AFF8600B467A60FB72FB6862
S315600057703B62012387F82730FB68002B01D10323A6
S315600057802BE1FB7A112B00F2158101A252F823F06E
S31560005790D9570060F55700601158006029580060BD
S315600057A0495800606958006089580060A3580060D5
S315600057B031590060B5590060B5590060B55900604F
S315600057C0B5590060B5590060535900609959006039
S315600057D0B5590060B55900603B6A5B68D3F84021F3
S315600057E03B6A5B6842F00102C3F84021002387F8F8
S315600057F02730F0E03B6A5B68D3F840213B6A5B6820
S3156000580022F00102C3F84021002387F82730E2E046
S315600058107B68002B00F0D0807968386A17F0B1FA9F
S31560005820034687F82730C7E07B68002B00F0C68008
S315600058307B68FB61FB691B781946386A17F0A3FB26
S31560005840034687F82730B9E07B68002B00F0B88004
S315600058507B68FB61FB691B781946386A17F00EFC9A
S31560005860034687F82730ABE07B68002B00F0AA8000
S315600058707B68FB61FB691B781946386A17F073FC15
S31560005880034687F827309DE07B68002B00F09C80FC
S315600058907B68BB61BB6901221A80002387F82730C9
S315600058A092E07B68002B00F091807B687B617B696E
S315600058B01B7803F00F03FB747B691B78DB09BB74F1
S315600058C0FB7C032B00F28280FB7C002B18D03B6AAA
S315600058D05A68FB7C013B70339B0013445B68BA7C5F
S315600058E0002A02D04FF4803200E001221340002BE0
S315600058F014BF01230023DBB29AB27B695A8013E09E
S315600059003B6A5B68D3F8C031BA7C002A02D04FF498
S31560005910803200E001221340002B14BF01230023D4
S31560005920DBB29AB27B695A80002387F827304DE054
S315600059307B68002B4CD07B68FB61FB691B781A4641
S315600059403B6A5B685206C3F85421002387F8273008
S315600059503EE0002387F8263013E097F8263063F0A0
S315600059607F03DBB21946386A17F00DFB97F82630CD
S315600059701946386A17F007FB97F82630013387F81F
S31560005980263097F82630032BE7D9386A17F060F986
S31560005990002387F827301EE07B68002B1AD07B68CF
S315600059A0FB613B6A93F85820FB691A70002387F8FD
S315600059B027300FE000BF0EE000BF0CE000BF0AE03A
S315600059C000BF08E000BF06E000BF04E000BF02E0E1
S315600059D000BF00E000BF97F8273018462837BD465D
S315600059E080BD00BF90B5A7B002AFF860B9607A60BD
S315600059F00023FB670023BB67052387F88F30BB68EE
S31560005A005B68B3F1FF3F02D07B68002B02D197F849
S31560005A108F309FE17B68C7F88830D7F888309B68FD
S31560005A20C7F8843007F177031A460621F86800F054
S31560005A3059FABB681B7A002B00F01781BB685B685C
S31560005A40082B03D1BB681B68002B02D197F88F30F7
S31560005A5080E1BB681B68C7F88030D7F880305A8809
S31560005A60D7F884305A80D7F880309A88D7F884304F
S31560005A709A80D7F88030DA88D7F88430DA80D7F819
S31560005A8080305A78D7F884305A70D7F880301A78D0
S31560005A90D7F884301A70D7F884301B7803F0600327
S31560005AA0002B23D1D7F884305B780C2B00F2CB80A7
S31560005AB0D7F884305B781A46A84B53F82230002B0F
S31560005AC000F0C180D7F884305B781A46A34B53F850
S31560005AD0224007F1780307F17C02D7F88410D7F8E3
S31560005AE08800A047034687F88F30ACE0D7F884304B
S31560005AF0DB88002B64D0D7F884301B785BB2002B30
S31560005B005EDBD7F88430DB88002B21D0D7F8843071
S31560005B101B7803F02003002B1AD00023BB660123F9
S31560005B2087F87030D7F884307B66D7F88430DB88A6
S31560005B30FB6607F164031A460121F86801F0D8F99B
S31560005B40034687F88F30FB6EBB67BB6EFB6725E04D
S31560005B50D7F88430DB88002B20D0D7F884301B78C8
S31560005B6003F04003002B19D00023BB65012387F89F
S31560005B706030D7F884307B65D7F88430DB88FB6586
S31560005B8007F154031A461321F86818F0D2FC03464D
S31560005B9087F88F30FB6DBB67BB6DFB6797F88F30FF
S31560005BA0002B50D1FA6FD7F88430DB880021F86873
S31560005BB018F046FA034687F88F3097F88F30C9E0B9
S31560005BC0D7F884301B7803F02003002B1AD000230B
S31560005BD0BB64012387F85030D7F884307B64D7F8EC
S31560005BE08430DB88FB6407F144031A460121F868B8
S31560005BF001F07EF9034687F88F30FB6CBB67BB6CA0
S31560005C00FB6720E0D7F884301B7803F04003002B55
S31560005C1019D00023BB63012387F84030D7F884305E
S31560005C207B63D7F88430DB88FB6307F134031A465D
S31560005C301321F86818F07DFC034687F88F30FB6BFC
S31560005C40BB67BB6BFB6797F88F2007F178030193FF
S31560005C5007F17C0300930023D7F88410F86817F0E7
S31560005C60E9FE034687F88F3072E097F87730032BAA
S31560005C7013D1D7F884305B781A46384B53F82240F4
S31560005C8007F1780307F17C02D7F88410D7F888000B
S31560005C90A047034687F88F305AE0BB685B68002BE5
S31560005CA056D0D7F88430DB88002B51D0D7F88430B3
S31560005CB01B785BB2002B4BDBD7F884301B7803F084
S31560005CC02003002B16D0BB681B68BB62002387F8D5
S31560005CD03030D7F884307B62BB685B68FB6207F163
S31560005CE024031A460121F86801F002F9034687F891
S31560005CF08F301CE0D7F884301B7803F04003002B0C
S31560005D0015D0BB681B68BB61002387F82030D7F8C5
S31560005D1084307B61BB685B68FB6107F114031A46DC
S31560005D201321F86818F005FC034687F88F3097F85A
S31560005D308F2007F17803019307F17C030093012319
S31560005D40D7F88410F86817F075FE034687F88F3029
S31560005D5097F88F3018469437BD4690BDFC86026032
S31560005D6080B588B000AF786039601B4BFB603B68DC
S31560005D703B6101233B770023FB7600237B778023FF
S31560005D80BB7640233B8307F10C0207F118031946E3
S31560005D90786818F06BF90346FB77FB7F002B01D020
S31560005DA0FB7F15E00023BB7607F10C0207F11803B1
S31560005DB01946786818F05AF90346FB77FB7F002B83
S31560005DC005D08021786818F0B0F9FB7F00E00023E9
S31560005DD018462037BD4680BDE559006080B584B061
S31560005DE000AF03463960FB7107F10B0318461BF0E1
S31560005DF028FD0023FB601EE02B49FA681346DB0092
S31560005E009B1A1B010B441B68002B11D02649FA68AC
S31560005E101346DB009B1A1B010B446D331B78FA7922
S31560005E209A4205D1FB7A18461BF02CFD012336E019
S31560005E30FB680133FB60FB68002BDDD00023FB6051
S31560005E4025E01949FA681346DB009B1A1B010B44CF
S31560005E501B68002B18D11449FA681346DB009B1A9D
S31560005E601B010B446D33FA791A70FA681346DB002E
S31560005E709B1A1B010C4A1A443B681A60FB7A184647
S31560005E801BF000FD00230AE0FB680133FB60FB6842
S31560005E90002BD6D0FB7A18461BF0F4FC022318467A
S31560005EA01037BD4680BD00BF600E002080B485B04F
S31560005EB000AF03463960FB710623FB73FB79023B37
S31560005EC0012B05D80023FB733B68054A1A6000E086
S31560005ED000BFFB7B18461437BD465DF8047B7047F0
S31560005EE03087026080B586B000AFF8600B467A6096
S31560005EF0FB720123FB757B68002B01D1042353E001
S31560005F00FB7A023B062B4DD801A252F823F000BF64
S31560005F102D5F00603D5F0060755F0060855F0060BB
S31560005F204D5F0060615F0060955F00607A680F2179
S31560005F30F86817F079FE0346FB7534E07A6810213D
S31560005F40F86817F071FE0346FB752CE07B683B61D1
S31560005F500023FB75FB6893F86E203B691A7022E09C
S31560005F607B683B610023FB75FB6893F86C203B699B
S31560005F701A7018E07A680621F86817F055FE03462D
S31560005F80FB7510E07A680721F86817F04DFE034646
S31560005F90FB7508E07A680921F86817F045FE034644
S31560005FA0FB7500E000BFFB7D18461837BD4680BD17
S31560005FB080B586B000AFF8600B467A60FB7201234D
S31560005FC0FB75FB7A033B0B2B72D801A252F823F0C8
S31560005FD001600060B1600060B160006011600060E7
S31560005FE027600060B1600060B16000609160006031
S31560005FF0A160006071600060B160006081600060F7
S315600060007A681121F86817F00FFE0346FB7554E0B5
S315600060107B68002B4ED00023FB757B681A78FB6883
S3156000602083F86E2046E0FB6893F86E30032B15D03C
S315600060307B68002B40D00023FB757B681A78FB6871
S3156000604083F86C20FB68032283F86E20FB686C3350
S315600060501A461421F86817F0E7FD2DE0FB686C33EB
S315600060601A460821F86817F0DFFD0346FB7523E042
S315600060707A680A21F86817F0D7FD0346FB751CE0BD
S315600060807A680B21F86817F0CFFD0346FB7514E0BC
S315600060907A680C21F86817F0C7FD0346FB750CE0BB
S315600060A07A680D21F86817F0BFFD0346FB7504E0BA
S315600060B000BF02E000BF00E000BFFB7D1846183756
S315600060C0BD4680BD80B485B000AF78600023FB60BC
S315600060D017E01149FA6813461B0113449B000B44F1
S315600060E01B68002B0AD1FA6813461B0113449B00F8
S315600060F0094A1A447B681A60002306E0FB6801338C
S31560006100FB60FB68002BE4D0022318461437BD46BB
S315600061105DF8047B704700BFD00E002080B596B056
S3156000612000AF786000237B65012387F853307B6876
S31560006130002B02D197F85330BBE17B6893F840306F
S31560006140002B08D07B6893F840207B685B689B686F
S315600061505B799A4202D997F85330AAE17B685B680B
S315600061609B681A687B6893F8403019466FF0604305
S315600061700B44DB0013447B630023FB644DE07B6BC5
S315600061805968FA6C13465B0013449B000B441B78FA
S31560006190022B3FD10023BB6422E07B6B5968FA6C0B
S315600061A013465B0013449B000B445A68BB6C1B018F
S315600061B013441A787B6893F842309A420DD17B6B10
S315600061C05968FA6C13465B0013449B000B445A688B
S315600061D0BB6C1B0113447B650FE0BB6C0133BB6476
S315600061E07B6B5968FA6C13465B0013449B000B4447
S315600061F01B7A1A46BB6C9342CFDB7B6B5968FA6C91
S3156000620013465B0013449B000B44DA787B6883F883
S31560006210412008E0FB6C0133FB647B6B1B781A46FC
S31560006220FB6C9342ABDB7B6D002B02D197F853304E
S315600062303FE17B687A6D9A6000237B6461E00023AE
S3156000624087F830307B6D99687A6C13465B0013442F
S315600062505B000B441B7987F831307B6D99687A6CEB
S3156000626013465B0013445B000B441B7887F82E30A3
S315600062707B6D99687A6C13465B0013445B000B4434
S315600062805B88BB857B6D99687A6C13465B001344AB
S315600062905B000B445B7887F82F3097F82E30DB096C
S315600062A0DBB2012B1CD197F82F30032B18D197F84E
S315600062B02E3003F00F03DAB27B6883F83D207B68EB
S315600062C0002283F83E207B684FF0FF325A637B687A
S315600062D0002283F83C207B6800229A63774B3B62FE
S315600062E07B687B627B681B6807F1200207F12C01E3
S315600062F0184617F0BBFE034687F853307B6C0133B4
S315600063007B647B6D1B791A467B6C934297DB00231B
S315600063103B6442E07B6B59683A6C13465B001344FE
S315600063209B000B441B780A2B34D10023FB6323E0CC
S315600063307B6B59683A6C13465B0013449B000B44B5
S315600063405A68FB6B1B0113441A787B6893F84230DA
S315600063509A420ED17B6B59683A6C13465B001344C4
S315600063609B000B445A68FB6B1B0113447B6500BFA3
S3156000637019E0FB6B0133FB637B6B59683A6C134620
S315600063805B0013449B000B441B7A1A46FB6B9342DB
S31560006390CEDB08E03B6C01333B647B6B1B781A46B3
S315600063A03B6C9342B6DB7B687A6DDA600023BB6335
S315600063B077E000233B777B6D9968BA6B13465B0089
S315600063C013445B000B441B797B777B6D9968BA6BD2
S315600063D013465B0013445B000B441B78BB767B6DF6
S315600063E09968BA6B13465B0013445B000B445B8889
S315600063F03B837B6D9968BA6B13465B0013445B0005
S315600064000B445B78FB76BB7EDB09DBB2012B18D1D4
S31560006410FB7E022B15D1BB7E03F00F03DAB27B68DD
S315600064205A777B6800229A777B684FF0FF325A6111
S315600064307B6800221A777B6800229A61204BFB609A
S315600064401EE0BB7E5BB2002B1ADBFB7E022B17D1F4
S31560006450BB7E03F00F03DAB27B6883F82D207B687E
S31560006460002283F82E207B684FF0FF325A627B68E9
S31560006470002283F82C207B6800229A62114BFB6015
S315600064807B683B617B681B6807F10C0207F11801AA
S31560006490184617F0EBFD034687F85330BB6B0133A4
S315600064A0BB637B6D1B791A46BB6B934281DB97F8A6
S315600064B0533018465837BD4680BD00BF6DE2016057
S315600064C0C1E2016013E3016080B59AB000AFF86085
S315600064D0B9607A60012387F867307B68002B02D049
S315600064E0FB68002B01D1032309E3FB683B65BB68AE
S315600064F0013B052B00F2EE8201A252F823F000BFA9
S31560006500F968006019650060236500607D6500605C
S31560006510F1650060D16600603B6D002283F8402023
S31560006520EBE27B68FB643B6D5B68002B00F0D4821A
S31560006530FB6C1A783B6D93F840309A4200F0CE823D
S31560006540386D17F010FF034687F86730FB6C1A78D2
S315600065503B6D83F840203B6D002283F84220386D06
S31560006560FFF7DCFD034687F8673097F86730002B46
S3156000657000F0B682924815F0B5FFB1E23B6D5B68FC
S31560006580002B00F0AF827B681B88A7F84A30B7F80B
S315600065904A3087F849303B6D93F84120B7F84A3066
S315600065A01B0A9BB2DBB29A4240F09E823B6D93F827
S315600065B0423097F849209A4200F09882386D17F079
S315600065C0D2FE034687F867303B6D97F8492083F81B
S315600065D04220386DFFF7A2FD034687F8673097F8CB
S315600065E06730002B00F08482764815F07BFF7FE2EF
S315600065F03B6D5B68002B00F07D823B6D9B68002BDA
S3156000660000F078823B6DDB68002B00F073827B685C
S31560006610FB6400233B661FE0FB6C19783B6D9B684F
S3156000662098683A6E13465B0013445B0003441B781C
S3156000663099420ED13B6D012283F83C203B6D1A686E
S31560006640FB6C1B781946104617F0C7FD034687F8A2
S3156000665067303B6E01333B663B6D9B681B791A4620
S315600066603B6E9342D8DB0023FB6529E0FB6C19780F
S315600066703B6DDB689868FA6D13465B0013445B00FC
S3156000668003441B78994218D1FB6C1B78DB09DBB29B
S31560006690012B03D13B6D01221A7703E03B6D01228A
S315600066A083F82C203B6D1A68FB6C1B7819461046E4
S315600066B017F093FD034687F86730FB6D0133FB6582
S315600066C03B6DDB681B791A46FB6D9342CEDB14E2A9
S315600066D03B6D5B68002B00F00D823B6D9B68002B69
S315600066E000F008823B6DDB68002B00F003827B685C
S315600066F0FB640023BB6559E0FB6C19783B6D9B68B6
S315600067009868BA6D13465B0013445B0003441B78BC
S31560006710994248D13B6D1A68FB6C1B781946104646
S3156000672017F073FD034687F86730FB6C1B78DB094F
S31560006730DBB2012B37D13B6D93F83C30002B32D066
S315600067403B6D002283F83C203B6D5B6BB3F1FF3FF2
S3156000675029D03B6D18683B6D93F83D103B6D5A6BC5
S315600067603B6D9B6B17F053FC034687F8673097F8D1
S315600067706730002B10D03B6D5B6BBB623B6D9B6BD8
S31560006780FB62002387F830303B6D1B6807F12801F8
S31560006790FA68184617F094FD3B6D4FF0FF325A6366
S315600067A03B6D00229A63BB6D0133BB653B6D9B6895
S315600067B01B791A46BB6D93429EDB00237B6592E094
S315600067C04887026090870260FB6C19783B6DDB68D6
S315600067D098687A6D13465B0013445B0003441B782C
S315600067E099427DD13B6D1A68FB6C1B781946104641
S315600067F017F00BFD034687F86730FB6C1B78DB09E7
S31560006800DBB2012B35D13B6D1B7F002B68D03B6D16
S3156000681000221A773B6D5B69B3F1FF3F60D03B6D39
S3156000682018683B6D597F3B6D5A693B6D9B6917F0E4
S31560006830EEFB034687F8673097F86730002B10D079
S315600068403B6D5B69FB613B6D9B693B62002387F82F
S3156000685024303B6D1B6807F11C01FA68184617F077
S315600068602FFD3B6D4FF0FF325A613B6D00229A61FE
S3156000687036E03B6D93F82C30002B31D03B6D002217
S3156000688083F82C203B6D5B6AB3F1FF3F28D03B6DEC
S3156000689018683B6D93F82D103B6D5A6A3B6D9B6A89
S315600068A017F0CEFB034687F8673097F86730002B02
S315600068B00FD03B6D5B6A3B613B6D9B6A7B610023DE
S315600068C03B763B6D1B6807F11001FA68184617F0B6
S315600068D020FD3B6D4FF0FF325A623B6D00229A629B
S315600068E07B6D01337B653B6DDB681B791A467B6D7F
S315600068F09342FFF669AF00E17B68002B00F0E88009
S315600069007B687B647B6C1B689B88DBB23A6D92F814
S315600069104120934240F0F0807B6C1B681B7803F04B
S315600069206003202B40F0D4807B6C04337B637B6CEC
S315600069300833BB637B6C1B689B88BB877B6C1B685F
S315600069405B88FB877B6C1B7B87F840307B6C1B68A6
S315600069505B78232B00F2B88001A252F823F000BFC7
S31560006960F1690060096A0060216A0060396A006046
S31560006970516A0060C96A0060C96A0060C96A0060DD
S31560006980C96A0060C96A0060C96A0060C96A006055
S31560006990C96A0060C96A0060C96A0060C96A006045
S315600069A0C96A0060C96A0060C96A0060C96A006035
S315600069B0C96A0060C96A0060C96A0060C96A006025
S315600069C0C96A0060C96A0060C96A0060C96A006015
S315600069D0C96A0060C96A0060C96A0060C96A006005
S315600069E0816A0060696A0060996A0060B16A0060E5
S315600069F03B6D5B681B68386D07F13402042198476C
S31560006A00034687F8673064E03B6D5B681B68386DEA
S31560006A1007F1340205219847034687F8673058E046
S31560006A203B6D5B681B68386D07F134020621984739
S31560006A30034687F867304CE03B6D5B681B68386DD2
S31560006A4007F1340207219847034687F8673040E02C
S31560006A503B6D5B681B68386D07F134020821984707
S31560006A60034687F8673034E03B6D5B681B68386DBA
S31560006A7007F1340209219847034687F8673028E012
S31560006A803B6D5B681B68386D07F134020A219847D5
S31560006A90034687F867301CE03B6D5B681B68386DA2
S31560006AA007F134020B219847034687F8673010E0F8
S31560006AB03B6D5B681B68386D07F134020C219847A3
S31560006AC0034687F8673004E0052387F8673000E0FF
S31560006AD000BF12E000BF10E000BF0EE000BF0CE098
S31560006AE000BF0AE000BF08E000BF06E000BF04E0A8
S31560006AF000BF02E000BF00E000BF97F867301846AD
S31560006B006837BD4680BD00BF80B586B000AF03461E
S31560006B10B9607A60FB730123FB7507F110031846B1
S31560006B20FFF7D0FA0346FB75FB7D002B01D0FB7D9A
S31560006B3044E03B691A46FB7B1146184600F09CF917
S31560006B400346FB75FB7D002B01D0FB7D36E03B6980
S31560006B501B68002B01D1032330E03B69BA685A6099
S31560006B603B69002283F840203B69FF2283F842207C
S31560006B703B69103318461AF09CFE0346002B02D080
S31560006B80104815F0AFFC3B69203318461AF091FEA9
S31560006B900346002B02D00B4815F0A4FC3B6930334A
S31560006BA018461AF086FE0346002B02D0054815F0FB
S31560006BB099FC3B691A467B681A60FB7D1846183754
S31560006BC0BD4680BDD487026080B584B000AF786072
S31560006BD00123FB737B68BB60BB68002B01D1032379
S31560006BE029E0BB681B6918461AF07DFE0346002B38
S31560006BF002D0134815F076FCBB681B6A18461AF07B
S31560006C0072FE0346002B02D00D4815F06BFCBB6884
S31560006C101B6B18461AF067FE0346002B02D0084825
S31560006C2015F060FCB86817F09EFB0346FB73B86806
S31560006C3017F003FBFB7B18461037BD4680BD00BFCF
S31560006C40E887026080B584B000AF03463960FB71A7
S31560006C5007F10B0318461AF0F4FD0023FB6018E0F9
S31560006C60284AFB681B0113441B68002B0ED0254A7B
S31560006C70FB681B0113440E331B78FA799A4205D1DF
S31560006C80FB7A18461AF0FEFD012337E0FB680133F4
S31560006C90FB60FB68002BE3D00023FB6026E0194A0B
S31560006CA0FB681B0113441B68002B1CD1154AFB684B
S31560006CB01B0113440E33FA791A70FB68DB00124A23
S31560006CC01A441049FB681B010B4408331A60FB68C1
S31560006CD01B010C4A1A443B681A60FB7A18461AF084
S31560006CE0D1FD00230AE0FB680133FB60FB68002BE3
S31560006CF0D5D0FB7A18461AF0C5FD02231846103720
S31560006D00BD4680BD140F0020240F002080B584B0DE
S31560006D1000AF0346FB710023FB6007F10B031846C7
S31560006D201AF08FFD2CE01C4AFB681B0113441B689C
S31560006D30002B22D0184AFB681B0113440E331B78C4
S31560006D40FA799A4219D1144AFB681B01134400224E
S31560006D501A60114AFB681B011344043300221A604F
S31560006D600D4AFB681B0113440E3300221A70FB7A2E
S31560006D7018461AF087FD00230AE0FB680133FB60C2
S31560006D80FB68002BCFD0FB7A18461AF07BFD0423F4
S31560006D9018461037BD4680BD140F002080B584B0FC
S31560006DA000AF03463960FB710023FB6007F10B03FC
S31560006DB018461AF046FD1EE0154AFB681B0113448F
S31560006DC01B68002B14D0124AFB681B0113440E3358
S31560006DD01B78FA799A420BD1FB681B010C4A1A445C
S31560006DE03B681A60FB7A18461AF04CFD00230AE0ED
S31560006DF0FB680133FB60FB68002BDDD0FB7A18462D
S31560006E001AF040FD042318461037BD4680BD00BF0A
S31560006E10140F002080B584B000AF7860396000231D
S31560006E20FB6007F10B0318461AF00BFD16E0114ADA
