S02B0000433A5C55736572735C686164656C6C615C4465736B746F705C66655F6D6963726F5F6769745C666522
S315600000004643464200040156000000000103030017
S31560000010000000000000000000000000000000007A
S31560000020000000000000000000000000000000006A
S31560000030000000000000000000000000000000005A
S315600000400000000000040600000000000000000040
S3156000005000004000000000000000000000000000FA
S31560000060000000000000000000000000000000002A
S31560000070000000000000000000000000000000001A
S31560000080EB04180A06320426000000000000000097
S3156000009000000000000000000000000000000000FA
S315600000A000000000000000000000000000000000EA
S315600000B000000000000000000000000000000000DA
S315600000C000000000000000000000000000000000CA
S315600000D000000000000000000000000000000000BA
S315600000E000000000000000000000000000000000AA
S315600000F0000000000000000000000000000000009A
S315600001000000000000000000000000000000000089
S315600001100000000000000000000000000000000079
S315600001200000000000000000000000000000000069
S315600001300000000000000000000000000000000059
S315600001400000000000000000000000000000000049
S315600001500000000000000000000000000000000039
S315600001600000000000000000000000000000000029
S315600001700000000000000000000000000000000019
S315600001800000000000000000000000000000000009
S3156000019000000000000000000000000000000000F9
S315600001A000000000000000000000000000000000E9
S315600001B000000000000000000000000000000000D9
S315600001C000010000001000000000000000000000B8
S315600001D000000100000000000000000000000000B8
S315600001E000000000000000000000000000000000A9
S315600001F00000000000000000000000000000000099
S31560000200FFFFFFFFFFFFFFFFFFFFFFFFFFFFFFFF98
S31560000210FFFFFFFFFFFFFFFFFFFFFFFFFFFFFFFF88
S31560001000D100204100200060000000003010006028
S31560001010201000600010006000000000000000006A
S31560001020000000600000400000000000FFFFFFFFBE
S31560001030D2043041CC03AC04400FC068FFFFFFFF11
S31560001040400FC06CFFFFFFFF400FC070FFFFFFFF48
S31560001050400FC074FFFFFFFF400FC078FFFFFFFF28
S31560001060400FC07CFFFFFFFF400FC080FFFFFFFF08
S31560001070400D803000002001400D8100001D000001
S31560001080400FC01400010D40401F80140000000096
S31560001090401F801800000000401F801C00000000F8
S315600010A0401F802000000000401F802400000000D8
S315600010B0401F802800000000401F802C00000000B8
S315600010C0401F803000000000401F80340000000098
S315600010D0401F803800000000401F803C0000000078
S315600010E0401F804000000000401F80440000000058
S315600010F0401F804800000000401F804C0000000038
S31560001100401F805000000000401F80540000000017
S31560001110401F805800000000401F805C00000000F7
S31560001120401F806000000000401F806400000000D7
S31560001130401F806800000000401F806C00000000B7
S31560001140401F807000000000401F80740000000097
S31560001150401F807800000000401F807C0000000077
S31560001160401F808000000000401F80840000000057
S31560001170401F808800000000401F808C0000000037
S31560001180401F809000000000401F80940000000017
S31560001190401F809800000000401F809C00000000F7
S315600011A0401F80A000000000401F80A400000000D7
S315600011B0401F80A800000000401F80AC00000000B7
S315600011C0401F80B000000010401F80B40000000087
S315600011D0401F80B800000000401F8204000110F923
S315600011E0401F8208000110F9401F820C000110F9AF
S315600011F0401F8210000110F9401F8214000110F98F
S31560001200401F8218000110F9401F821C000110F96E
S31560001210401F8220000110F9401F8224000110F94E
S31560001220401F8228000110F9401F822C000110F92E
S31560001230401F8230000110F9401F8234000110F90E
S31560001240401F8238000110F9401F823C000110F9EE
S31560001250401F8240000110F9401F8244000110F9CE
S31560001260401F8248000110F9401F824C000110F9AE
S31560001270401F8250000110F9401F8254000110F98E
S31560001280401F8258000110F9401F825C000110F96E
S31560001290401F8260000110F9401F8264000110F94E
S315600012A0401F8268000110F9401F826C000110F92E
S315600012B0401F8270000110F9401F8274000110F90E
S315600012C0401F8278000110F9401F827C000110F9EE
S315600012D0401F8280000110F9401F8284000110F9CE
S315600012E0401F8288000110F9401F828C000110F9AE
S315600012F0401F8290000110F9401F8294000110F98E
S31560001300401F8298000110F9401F829C000110F96D
S31560001310401F82A0000110F9401F82A4000110F94D
S31560001320401F82A8000110F9402F00001000000441
S31560001330402F000800030524402F000C06030524F7
S31560001340402F001080000017402F00148200001705
S31560001350402F001884000017402F001C86000017DD
S31560001360402F002090000021402F0024A00000158F
S31560001370402F0028A8000017402F002CA900001B52
S31560001380402F003000000021402F000401007988C2
S31560001390402F004000000FF1402F004400652922D5
S315600013A0402F004800010920402F004C50210A08B8
S315600013B0402F008000004031402F008400888888DC
S315600013C0402F009400000002402F009800000000AB
S315600013D0402F009080000000402F009CA55A000F0F
S315600013E0CF000C1C402F003C00000001CC00140410
S315600013F0402F009080000000402F009CA55A000CF2
S31560001400CF000C1C402F003C00000001CC001404EF
S31560001410402F009080000000402F009CA55A000CD1
S31560001420CF000C1C402F003C00000001CC001C04C7
S31560001430402F00A000000033402F00908000000085
S31560001440402F009CA55A000ACF000C1C402F003C80
S3156000145000000001CC000C04402F004C50210A090A
S31560001460FFFFFFFFFFFFFFFFFFFFFFFFFFFFFFFF26
S31560001470FFFFFFFFFFFFFFFFFFFFFFFFFFFFFFFF16
S31560001480FFFFFFFFFFFFFFFFFFFFFFFFFFFFFFFF06
S31560001490FFFFFFFFFFFFFFFFFFFFFFFFFFFFFFFFF6
S3156000200000802020F5220060152400608F6E01603C
S31560002010000000000000000000000000000000005A
S315600020200000000000000000000000004124006085
S31560002030000000000000000071240060451201608D
S31560002040B9640160C5640160D1640160DD640160EA
S31560002050E9640160F5640160016501600D65016018
S315600020601965016025650160316501603D65016046
S315600020704965016055650160616501606D65016076
S315600020807965016085650160916501609D650160A6
S31560002090A9650160B5650160C1650160CD650160D6
S315600020A0D9650160E5650160F1650160FD65016006
S315600020B00966016015660160216601602D66016032
S315600020C03966016045660160516601605D66016062
S315600020D06966016075660160816601608D66016092
S315600020E099660160A5660160B1660160BD660160C2
S315600020F0C9660160D5660160E1660160ED660160F2
S31560002100F966016005670160116701601D6701601E
S315600021102967016035670160416701604D6701604D
S315600021205967016065670160716701607D6701607D
S315600021308967016095670160A1670160AD670160AD
S31560002140B9670160C5670160D1670160DD670160DD
S31560002150E9670160F5670160016801600D6801600B
S315600021601968016025680160316801603D68016039
S315600021704968016055680160616801606D68016069
S3156000218079680160856801604195006071980060BA
S31560002190916801609D680160A9680160B568016029
S315600021A0C1680160CD680160D9680160E568016059
S315600021B0F1680160FD680160096901601569016087
S315600021C0216901602D6901603969016045690160B5
S315600021D0516901605D6901606969016075690160E5
S315600021E0816901608D69016099690160A569016015
S315600021F0B1690160BD690160C9690160D569016045
S31560002200118E0060F98D0060E1690160ED69016021
S31560002210F9690160056A0160116A01601D6A016001
S31560002220296A0160356A0160416A01604D6A016030
S31560002230596A0160656A0160716A01607D6A016060
S31560002240896A0160956A0160A16A0160AD6A016090
S31560002250B96A0160C56A0160D16A0160DD6A0160C0
S31560002260E96A0160F56A0160016B01600D6B0160EE
S31560002270196B0160256B0160316B01603D6B01601C
S31560002280496B0160556B0160616B01606D6B01604C
S31560002290796B0160856B0160916B01609D6B01607C
S315600022A0A96B0160B56B0160C16B0160CD6B0160AC
S315600022B0D96B0160E56B016010F2016000000020DF
S315600022C06402000010F2016000002020000000009F
S315600022D010F201600000008000000000000800208D
S315600022E06055000000002020000000000000008013
S315600022F00000000080B584B000AF72B61F4B4FF08F
S31560002300AA321A601E4B1F4A1A601F4B4FF42002F6
S315600023101A600CF097FF1D4BFB6013E0FB681A1DFB
S31560002320FA601B68BB60FB681A1DFA601B687B60FD
S31560002330FB681A1DFA601B683B603A687968B86882
S3156000234000F02AF8FB68124A9342E7D30DE0FB6877
S315600023501A1DFA601B687B60FB681A1DFA601B68B1
S315600023603B603968786800F039F8FB68094A93423F
S31560002370EDD362B618F082F9FEE700BF44C00A40AA
S3156000238040C00A400600200038C00A40B8220060FB
S31560002390DC220060F422006080B489B000AFF8608F
S315600023A0B9607A60BB68FB61FB68BB6100237B61D7
S315600023B00AE0BA69131DBB61FB69191DF9611268F0
S315600023C01A607B6904337B617A697B689A42F0D3D1
S315600023D000BF2437BD465DF8047B704780B485B086
S315600023E000AF786039607B68FB600023BB6007E004
S315600023F0FB681A1DFA6000221A60BB680433BB6072
S31560002400BA683B689A42F3D300BF1437BD465DF89D
S31560002410047B704780B400AFFEE780B400AFFEE790
S3156000242080B400AFFEE780B400AFFEE780B400AFD3
S31560002430FEE780B400AFFEE7FFFFFFFFFFFFFFFF91
S31560002440074B19680868B0E8F04F80F30988BFF356
S315600024506F8F4FF0000080F311887047AFF30080F4
S315600024605C5B002000BF00BFFFFFFFFFFFFFFFFFB9
S31560002470EFF30980BFF36F8F154B1A681EF0100FCC
S3156000248008BF20ED108A20E9F04F10602DE90900A1
S315600024904FF0200080F31188BFF34F8FBFF36F8F2B
S315600024A00FF012FD4FF0000080F3118809BC196827
S315600024B00868B0E8F04F1EF0100F08BFB0EC108A45
S315600024C080F30988BFF36F8F704700BFAFF300805A
S315600024D05C5B002000BF00BF90B5E9B000AF3B1D5C
S315600024E01860C14B1B7883F00103DBB2002B04D06C
S315600024F0BE4806F093F9012375E33B1D1968BC4895
S3156000250018F048FA0346002B07D03B1D1968B948F6
S3156000251018F040FA0346002B13D1B74B1B6807F53A
S31560002520A3721146184616F05CFBC7F89C01B7F813
S3156000253046311A4607F5A473B049184610F0B6FD41
S3156000254038E33B1D1968AE4818F024FA0346002BA1
S3156000255007D03B1D1968AB4818F01CFA0346002BE0
S3156000256013D1A54B1B6807F5A2721146184616F0E3
S31560002570B2FBC7F89C01B7F844311A4607F5A47355
S315600025809E49184610F092FD14E33B1D19689E485B
S3156000259018F000FA0346002B07D03B1D19689B48CC
S315600025A018F0F8F90346002B13D1934B1B6807F21A
S315600025B043121146184616F0F0FAC7F89C0197F8D0
S315600025C043311A4607F5A4738C49184610F06EFD20
S315600025D0F0E23B1D19688E4818F0DCF90346002BC3
S315600025E007D03B1D19688B4818F0D4F90346002BB9
S315600025F013D1814B1B6807F5A0721146184616F079
S315600026007BF9C7F89C01B7F840311A4607F5A47301
S315600026107A49184610F04AFDCCE23B1D19687E489F
S3156000262018F0B8F90346002B07D03B1D19687B48A4
S3156000263018F0B0F90346002B13D16F4B1B6807F2F5
S315600026403F121146184616F030F9C7F89C0197F804
S315600026503F311A4607F5A4736849184610F026FDFF
S31560002660A8E23B1D19686E4818F094F90346002BE2
S3156000267007D03B1D19686B4818F08CF90346002B90
S3156000268026D15D4B1B6807F59F721146184616F0FA
S31560002690F0FCC7F89C0197F83E3107EE903AF8EEE9
S315600026A0677A17EE900A12F025FA03460C461A4628
S315600026B023464BA1D1E9000111F0ECFF03460C461D
S315600026C007F5A4701A462346574910F0EFFC71E2ED
S315600026D03B1D1968554818F05DF90346002B13D168
S315600026E0454B1B6807F23D121146184616F0C1FCB1
S315600026F0C7F89C0197F83D311A4607F5A4733F4920
S31560002700184610F0D3FC55E23B1D1968484818F08E
S3156000271041F90346002B07D03B1D1968454818F060
S3156000272039F90346002B18D1334B1B6807F59C72A9
S315600027301146184608F0C2F8C7F89C01D7F8383138
S31560002740184612F0D7F903460C4607F5A4701A46E8
S315600027502346354910F0AAFC2CE23B1D1968364821
S3156000276018F018F90346002B07D03B1D196833484B
S3156000277018F010F90346002B13D11F4B1B6807F5A1
S315600027809A721146184616F01CFCC7F89C01D7F8D9
S3156000279034311A4607F5A4731849184610F086FCBA
S315600027A008E23B1D1968264818F0F4F80346002B2A
S315600027B048D1114B1B6807F598721146184615F0FB
S315600027C0E1FAC7F89C01D7F830311A4607F5A473C9
S315600027D00A49184610F06AFCECE100BFAFF30080CE
S315600027E000000080C5F7AC415C5D002048B4016024
S315600027F060B4016068B40160383F002070B4016065
S3156000280074B401607CB4016084B401608CB401600E
S3156000281098B401609CB40160A0B40160ACB401607E
S31560002820B8B40160BCB40160C0B40160C4B40160F6
S31560002830CCB40160DCB40160E0B40160F4B4016062
S3156000284000B501603B1D1968C54818F0A3F803463A
S31560002850002B07D03B1D1968C24818F09BF8034649
S31560002860002B13D1C04B1B6807F22F121146184676
S3156000287016F0ABFAC7F89C0197F82F311A4607F5A0
S31560002880A473BA49184610F011FC93E13B1D196810
S31560002890B74818F07FF80346002B13D1B24B1B687C
S315600028A007F597721146184616F01FFCC7F89C018B
S315600028B097F82E311A4607F5A473AC49184610F0FE
S315600028C0F5FB77E13B1D1968AA4818F063F80346E3
S315600028D0002B13D1A44B1B6807F22D121146184624
S315600028E016F036FCC7F89C0197F82D311A4607F5A5
S315600028F0A4739E49184610F0D9FB5BE13B1D19682D
S315600029009D4818F047F80346002B07D03B1D196811
S315600029109A4818F03FF80346002B13D1924B1B6878
S3156000292007F596721146184616F07CFBC7F89C01AF
S3156000293097F82C311A4607F5A4738C49184610F09F
S31560002940B5FB37E13B1D19688D4818F023F803463F
S31560002950002B18D1844B1B6807F5947211461846F4
S3156000296015F0F8F8C7F89C01D7F82831184612F028
S31560002970C1F803460C4607F5A4701A4623468149FA
S3156000298010F094FB16E13B1D19687F4818F002F8B9
S315600029900346002B19D1744B1B6807F5907207F537
S315600029A09271184615F0A2F8C7F89C01D7F8243141
S315600029B0184612F09FF803460C4607F5A4701A46AF
S315600029C02346704910F072FBF4E03B1D19686F48AE
S315600029D017F0E0FF0346002B19D1634B1B6807F520
S315600029E08C7207F58E71184615F080F8C7F89C0151
S315600029F0D7F81831184612F07DF803460C4607F5ED
S31560002A00A4701A4623465F4910F050FBD2E03B1D86
S31560002A1019685F4817F0BEFF0346002B18D1524B6A
S31560002A201B6807F58A721146184600F045FCC7F820
S31560002A309C01D7F81431184612F05CF803460C4630
S31560002A4007F5A4701A4623464E4910F02FFBB1E0F5
S31560002A503B1D19684F4817F09DFF0346002B07D0B2
S31560002A603B1D19684C4817F095FF0346002B30D183
S31560002A703D4B1B6807F213121146184616F0F9FA19
S31560002A80C7F89C0197F8133107EE903AB8EE677A6B
S31560002A90DFED426AC6EE877AC7ED667AD7F89801A7
S31560002AA012F028F802460B4611F072FF03460C46F8
S31560002AB01A46234628A1D1E9000111F0EBFD034631
S31560002AC00C4607F5A4701A4623462E4910F0EEFA16
S31560002AD070E03B1D1968324817F05CFF0346002B17
S31560002AE018D1214B1B6807F586721146184600F00F
S31560002AF0B7FBC7F89C01D7F80C31184611F0FAFFFE
S31560002B0003460C4607F5A4701A4623461D4910F085
S31560002B10CDFA4FE03B1D1968224817F03BFF03468C
S31560002B20002B41D1104B1B6807F58472114618467D
S31560002B3007F0E4FEC7F89C01D7F80831184611F093
S31560002B40D9FF03460C4607F5A4701A4623460D497D
S31560002B5010F0ACFA2EE000BF0000004A78DEB1410A
S31560002B6010B5016018B50160383F002070B401608F
S31560002B7020B501602CB5016038B5016044B50160CF
S31560002B804CB50160C0B401605CB5016068B50160B8
S31560002B9074B5016080B5016094B501602CBE674D67
S31560002BA098B501609CB5016007F5A4731049184695
S31560002BB010F07CFAD7F89C31002B0ED007F1080094
S31560002BC0D7F89C310B4A4FF4807110F0A5FA07F1E3
S31560002BD00803184605F022FE04E007F5A4731846BC
S31560002BE005F0A4FE0023184607F5D277BD4690BDD2
S31560002BF0A4B50160C0B5016090B5B3B000AFF86030
S31560002C0087ED020AC7ED010A97ED027AD7ED017AE0
S31560002C10B4EEE77AF1EE10FA01DD112317E3BE4B4D
S31560002C20C7F8C430FB6893F89930012B02D1BB4BCF
S31560002C30C7F8C43097ED017AD7ED027A77EE677AF6
S31560002C40C7ED277A97ED277AD7ED317AB4EEE77A32
S31560002C50F1EE10FA0FDD97ED027AD7ED317A77EE65
S31560002C60277AC7ED017A97ED017AD7ED027A77EE8A
S31560002C70677AC7ED277AF86814F00EFBC7F89800F4
S31560002C80D7F89830002B02D0D7F89830DFE2FB688F
S31560002C90BA68C3F8C820FB687A68C3F8CC20FB68BA
S31560002CA093F89930012B0AD14FF000039C4CC7E989
S31560002CB02E344FF000039B4CC7E92C340AE04FF0EA
S31560002CC000034FF00004C7E92E344FF00003964C22
S31560002CD0C7E92C34D7E92C234FF00000934911F053
S31560002CE0D9FC03460C461846214618F00BF80346F5
S31560002CF0C7F89430B86811F0FDFE03460C46C7E984
S31560002D002234786811F0F6FE03460C46C7E9203493
S31560002D10FB68D3F8B430184611F0ECFE03460C4657
S31560002D20C7E91E347AA4D4E900341A462346D7E9A3
S31560002D302C0111F025FC03460C46C7E91C3474A12E
S31560002D40D1E900014FF00002794B11F019FC0346FE
S31560002D500C46C7E91A34D7E91C23D7E92E0111F0CE
S31560002D600FFC03460C46C7E91834D7E91E23D7E99A
S31560002D70220111F037FD03460C4618462146D7E975
S31560002D801A2311F087FC03460C4644EC173BB0EE61
S31560002D90470AF0EE670A10F03DF987ED2A0B4FF00F
S31560002DA00002644BD7E92A0118F02CF80346002B81
S31560002DB004D04FF000035F4CC7E92A340023FB754B
S31560002DC007F117031A464321F86815F0FAF9FB7DF7
S31560002DD0184617F0FCFF03460C461A462346D7E909
S31560002DE02A0111F0D5FD03460C46C7E91634D7E92A
S31560002DF0160117F0A7FF034687F8573097F8573044
S31560002E001946F86816F005F8D7E91A23D7E92A01B2
S31560002E1011F0B6FB03460C461A462346D7E91E0157
S31560002E2011F0B6FD03460C46C7E91234D7E9122302
S31560002E30D7E9220118F011F80346002B02D0D7E932
S31560002E40223401E0D7E91234C7E92234D7F8940076
S31560002E5017F0B4FFD7E92E2311F0C4FC03460C46E5
S31560002E60184621464FF000022F4B11F0BBFC03467B
S31560002E700C4618462146D7E91C2311F081FB034610
S31560002E800C4618462146D7E9122311F081FD034608
S31560002E900C461A462346D7E9200117F0B3FF0346CE
S31560002EA0002B02D0D7E9203422E0D7F8940017F03F
S31560002EB085FFD7E92E2311F095FC03460C4618468C
S31560002EC021464FF00002184B11F08CFC03460C466D
S31560002ED018462146D7E91C2311F052FB03460C46DF
S31560002EE018462146D7E9122311F052FD03460C46D7
S31560002EF0C7E92034D7E92223D7E9200117F0ADFFCF
S31560002F000346002B18D0D7E9203417E0AFF30080D2
S31560002F104ADE5F0763567A3F52061E4186BB1A41F8
S31560002F2000001040000020400000F03F0000984084
S31560002F30000058400000F0BFD7E92234C7E92034CA
S31560002F40C5A4D4E90034C7E91034D7E91223D7E918
S31560002F50220111F047FC03460C4618462146D7E984
S31560002F601C2311F097FB03460C46C7E90E3497ED18
S31560002F700E0B10F005F854EC103B1A462346D7E9C1
S31560002F800E0111F02FFC03460C46C7E90C3497ED91
S31560002F900C0B17F07FFC54EC103B1A462346D7E91E
S31560002FA0100117F05AFF0346002B13D097ED0E0B56
S31560002FB00FF0E6FF51EC100BD7E92E2311F0E8FC79
S31560002FC003460C461846214617F0BCFE0346C7F872
S31560002FD0A43012E097ED0E0B10F01CF851EC100BBC
S31560002FE0D7E92E2311F0D4FC03460C461846214639
S31560002FF017F0A8FE0346C7F8A430D7E91223D7E92D
S31560003000200111F0EFFB03460C4618462146D7E92E
S315600030101C2311F03FFB03460C46C7E90E3497EDBF
S315600030200E0B0FF0F7FF54EC103B1A462346D7E918
S315600030300E0111F0D7FB03460C46C7E90C3497ED39
S315600030400C0B17F027FC54EC103B1A462346D7E9C5
S31560003050100117F002FF0346002B13D097ED0E0BFD
S315600030600FF0D8FF51EC100BD7E92E2311F090FC2E
S3156000307003460C461846214617F064FE0346C7F819
S31560003080A03012E097ED0E0B0FF07AFF51EC100BAB
S31560003090D7E92E2311F07CFC03460C4618462146E0
S315600030A017F050FE0346C7F8A030D7F8A40017F013
S315600030B08EFED7E92E2311F095FB03460C46184683
S315600030C02146D7E91C2311F05BFA03460C461A46E3
S315600030D02346D7E9120111F05BFC03460C46C7E9AB
S315600030E00A34D7F8A00017F072FED7E92E2311F044
S315600030F079FB03460C4618462146D7E91C2311F096
S315600031003FFA03460C461A462346D7E9120111F0E8
S315600031103FFC03460C46C7E90834FB6893F89930D0
S31560003120012B1AD1FB68D7F8A420C3F8D020FB681E
S31560003130D7F8A020C3F8E020D7E90A0111F0B2FC65
S315600031400246FB68C3F8C020D7E9080111F0AAFC63
S315600031500246FB68C3F8C4203DE0D7F8A4309A085D
S31560003160FB68C3F8D020D7F8A0309A08FB68C3F88C
S31560003170E020D7F8A43003F00302FB68C3F8DC2034
S31560003180D7F8A03003F00303002B0BD1FB680022B5
S31560003190C3F8EC20FB68D3F8E0305A1EFB68C3F82E
S315600031A0E02008E0D7F8A03003F00303C3F104027F
S315600031B0FB68C3F8EC20D7E90A0111F073FC0246FC
S315600031C0FB68C3F8C020D7E9080111F06BFC024622
S315600031D0FB68C3F8C420FB68D3F8D0301946F8689A
S315600031E015F03AFEFB68D3F8E0301946F86815F03A
S315600031F05FFEFB6893F89930002B12D0FB68D3F81A
S31560003200E020FB68D3F8D030D31A0133FA68D2F8DD
S31560003210942002FB03F35B00FB61FB68FA69DA65E5
S3156000322011E0FB68D3F8E020FB68D3F8D030D31AFE
S315600032300133FA68D2F8942002FB03F39B00BB616A
S31560003240FB68BA69DA65F86814F03CF8002318463A
S31560003250CC37BD4690BD00BF2D431CEBE2361A3F0E
S3156000326090B583B000AF786039607B6893F8993029
S31560003270012B0AD10CA4D4E900341846214611F07A
S3156000328011FC02463B681A6009E009A4D4E90034DF
S315600032901846214611F006FC02463B681A60002378
S315600032A018460C37BD4690BD4ADE5F076356AA3F97
S315600032B04ADE5F0763567A3F90B58BB000AF7860A1
S315600032C0396000237B8200233B820023FB7307F176
S315600032D012031946786815F084FC07F11003194645
S315600032E0786815F0F8FC07F10F031946786815F051
S315600032F054FCFB7B1A460123934087F82730002352
S31560003300BB8107F10C031946786815F0F5FA0023BE
S31560003310FB7207F10B031946786815F0C6FA3B8A0B
S315600033201A467B8AD21A97F8273092FBF3F307EE98
S31560003330903AF8EEE77AC7ED087ABB8907EE903ADD
S31560003340B8EEE77AD7ED087A27EE277AFB7A07EEAA
S31560003350903AF8EEE77A67EE277AC7ED077A0023A8
S31560003360BB7207F10A031946786815F082FEBB7ACC
S31560003370184617F023FD03460C461A46234610A14D
S31560003380D1E9000111F086F903460C46184621463C
S3156000339011F088FB0346BB61F7EE006A97ED067A8B
S315600033A0C6EE877A97ED077A67EE277AC7ED057AD4
S315600033B03B687A691A60002318462C37BD4690BD73
S315600033C000000080C5F7AC41F0B58DB000AF786005
S315600033D00023FB7707F11F031946786815F065FA35
S315600033E00023BB7707F11E0370223E21786815F033
S315600033F05BFB00237B7707F11D032022342178686D
S3156000340015F052FBFB7F1C46BB7F184617F0DFFCAE
S3156000341002460B4643EC112B9FED870B00F0CCFE6A
S3156000342056EC105B7B7F184617F0D1FC02460B46C4
S3156000343043EC112B9FED800B00F0BEFE53EC102B7E
S315600034402846314611F09CF802460B46104619464E
S3156000345017F078FC0346B4FBF3F203FB02F3E31ABE
S31560003460002B01D01623E0E000233B7707F11C0315
S315600034701A461C21786814F0A4FE3B7F002B01D00D
S315600034800123D2E00023FB7607F11B031946786817
S3156000349015F0EFFD0023BB7607F11A031A462D21BE
S315600034A0786814F08EFEFA7EBB7E9A4201D21723AC
S315600034B0BBE000233B830023FB8200237B7507F17F
S315600034C018031946786815F08CFB07F11603194640
S315600034D0786815F000FC07F115031946786815F051
S315600034E05CFB7B7D1A460123934087F82F300023CF
S315600034F07B8207F112031946786815F0FDF9FB8A9D
S315600035001A463B8BD21A97F82F3092FBF3F3013BA6
S3156000351007EE903AF8EEE77AC7ED0A7A6FF07F43E6
S315600035207B62FB7F7A8A02FB03F307EE903AB8EE82
S31560003530E77AD7ED0A7A27EE277A7B6A07EE903A22
S31560003540F8EE677AB4EEE77AF1EE10FA01DD182349
S315600035506BE000237B7407F11103302273217868D6
S3156000356015F0A2FA7B7C0133DBB25B00DBB27B74C5
S3156000357000233B7407F1100338224921786815F05F
S3156000358093FA3B7C002B06D03B7C013B012202FA7E
S3156000359003F3DBB23B740023FB7307F10F030722CF
S315600035A04921786815F080FAFB7B0133DBB2FB7347
S315600035B0FB7B3A7C02FB03F37A7C02FB03F33B6200
S315600035C00023BB7307F10E030C223421786815F0D3
S315600035D06BFABB7B1A4601239340DBB2BB73BB7BA2
S315600035E01A463B6A03FB02F3FA7E934201D3192320
S315600035F01BE000237B7307F10D031A460E217868E2
S3156000360014F0DFFDFB7E1A4613465B02991A7B7B3C
S315600036105A1C13465B00134491FBF3F31A463B6A4C
S31560003620934201D91A2300E0002318463437BD4679
S31560003630F0BD00BFAFF30080000000000000004056
S315600036402DE9F04393B000AFF860B9603B60134674
S31560003650FB7100237B62FB681B6EDB0E03F00703C6
S31560003660794AD35C1A463B68B3FBF2F33B624FF090
S31560003670FF337B63FF23BB63FB79032B41D170A4CC
S31560003680D4E90034C7E90A34D7E90A34DD1844EBD3
S315600036900406C7E90A563B6A4FF000041A462346F9
S315600036A0D7E90A0117F073FA03460C46C7E90A34EC
S315600036B063A4D4E90034C7E91034D7E910562B4621
S315600036C034464FF000014FF00002220242EA1362D4
S315600036D019020B46144613EB050844EB0609C7E9C5
S315600036E010893B6A4FF000041A462346D7E9100159
S315600036F017F04DFA03460C46C7E9103401237B6286
S3156000370031E04FA4D4E90034C7E90A343B6A4FF08C
S3156000371000041A462346D7E90A0117F038FA034629
S315600037200C46C7E90A3446A4D4E90034C7E9103424
S31560003730D7E910124FF000034FF00004140244EA78
S3156000374011640B02C7E910343B6A4FF000041A4655
S315600037502346D7E9100117F01AFA03460C46C7E963
S31560003760103400237B62BB684FF00004D7E90A126D
S31560003770A24208BF994207D3FB791A460021F8682E
S3156000378009F0A8FBBB6A53E00023FB6343E02CA46B
S31560003790D4E90034C7E90634FA6B7B6A1344013313
S315600037A04FF00004FA6903FB02F1BA6904FB02F206
S315600037B00A44B969A1FB033422441446C7E90634B6
S315600037C0C7E906343B6A4FF000041A462346D7E938
S315600037D0060117F0DCF903460C46C7E90634BB68F8
S315600037E04FF00004D7E90612A24208BF99420FD3F0
S315600037F0BA69BB68D31A7B617A6B7B699A4207D9CF
S315600038007B697B63FB6BBB63D7E90634C7E910341E
S31560003810FB6B0133FB63FB6BFF2B02D87B6B002BCF
S31560003820B5D1FB791A46B96BF86809F053FB3B6C66
S3156000383018464C37BD46BDE8F08300BFAFF3008045
S3156000384000CA9A3B00000000CCDB0160FFFFFFFF6F
S315600038502DE9F04F2DED048BD1E900679DB014463C
S31560003860069347F6F07333EA17430590DDF8ACA08C
S315600038700C9607972BD10023E370C7F313033343EA
S315600038804FF06E031DD169226370002F4FF06603FF
S315600038902270A37009DAB24B2A9A03251360284670
S315600038A01DB0BDEC048BBDE8F08F069B9C0706D46B
S315600038B0AC4A13F0040FAC4B08BF1346ECE7AB4BB6
S315600038C0EAE761222370A3706270A64BE4E7059B6A
S315600038D023F02003412B00F0BB82002200233046F8
S315600038E0394617F08FFA002842D007F100430C9A48
S315600038F01F460123164609930022002330463946A7
S3156000390017F069FA002840F09D820FA847EC106B0B
S3156000391001F0B6FB0F9840F22D154543A5F5AB5B5C
S315600039204FF47A738DED100BABF11C0B9FED820B90
S315600039309BFBF3FBABEB000001F0D6FB41F294136B
S315600039409D428DED1A0B15DC7DA3D3E90023CDE9ED
S315600039501623CBF10005EDB1E80711D4DDE91601B8
S31560003960DDE9162310F00CFE6D10CDE91601F3E7C4
S315600039700990C1E77E4B0022CDE916235D46EAE752
S31560003980DDE91601DDE91A2310F0FAFD012DCDE916
S315600039901A01E3D1DDE91001DDE91A2310F07AFEA0
S315600039A00FF2A419D9E90089CDE91201714F0026F9
S315600039B0DDE9120142464B4617F024FA002840F032
S315600039C093800FF28C19D9E900896A4F0026DDE9E8
S315600039D0120142464B4617F096FA002840F097804F
S315600039E0DDE9120117F08EF99FED5B8B8BEAEB73C5
S315600039F09FED539BA3EBEB7305460D93284617F09B
S31560003A00DDF90F9EABEB060641EC100B304601F07C
S31560003A106BFBBBF1000F8DED120B8DED148B80F2FD
S31560003A20AD808DED169B8DED188BDDE91689DDE990
S31560003A301601DDE918674FF0000842464B4610F064
S31560003A40D1FE32463B4610F0A3FFCDE91801CDE921
S31560003A5016890022464BDDE9160110F091FD0246FB
S31560003A600B460020444910F0BDFE0022404B10F08A
S31560003A7011FECDE918010D9B0893089BD90700F14B
S31560003A808F80DDE91623DDE91889DDE918671046C0
S31560003A90194610F07DFF42464B4610F079FF3246DC
S31560003AA03B4610F06DFDCDE91801DDE91601DDE953
S31560003AB0162310F065FDCDE91601DDE91689DDE90D
S31560003AC01601DDE918674FF0000842464B4610F0D4
S31560003AD089FE3B46324610F05BFF089BCDE9180134
S31560003AE05B10CDE91689C7E7DDE9120132463B4630
S31560003AF010F046FDCDE91201DDE91A0132463B467A
S31560003B0010F0C8FD0BF1FF3BCDE91A0150E7DDE986
S31560003B10120132463B4610F0BDFDCDE91201DDE9EA
S31560003B201A0132463B4610F02BFD0BF1010BCDE935
S31560003B301A014CE7AFF30080000000000000F03F80
S31560003B409A9999999999C93F00000000006AF840CE
S31560003B500000000080842E4100000000000000008C
S31560003B60D1F1016020F0016007F00160A1F1016010
S31560003B7000001440000024400000F03F9FEDBC7B35
S31560003B808DED167B8DED188B7FF475AFDDE9120137
S31560003B90DDE9102317F08CF9002844D1013D2DE7AB
S31560003BA09DED127BDDE91889DDE91601DDE9182353
S31560003BB0DDE914678DED0A7B10F0EAFE32463B467E
S31560003BC010F0DEFC424606460F464B46DDE90A012A
S31560003BD010F0D6FC02460B463046394610F0D8FE49
S31560003BE0CDE91401DDE91601DDE9122310F0C8FC08
S31560003BF0CDE91201DDE91289DDE91201DDE914671B
S31560003C004FF0000842464B4610F0ECFD3B4632460C
S31560003C1010F0BEFE089B012BCDE91401CDE9128997
S31560003C207FF42FAFB2E7DDE91223DDE9100110F072
S31560003C30D9FDCDE91001DDE91423DDE9100110F0AD
S31560003C40D1FDCDE91001DDE91A23DDE9100110F09F
S31560003C5021FDCDE91001DDE9100190A3D3E9002330
S31560003C6010F08EFCCDE91001DDE9100117F04AF87D
S31560003C70DDE91067804617F0A1F802460B4630462C
S31560003C80394610F0AFFD85A3D3E9002310F078FC28
S31560003C90CDE91001DDE9100117F034F80646002E73
S31560003CA0C0F29C80744B9E4200F39F80B8F1000F77
S31560003CB0C0F2A280704B984500F3A4806F4A95428B
S31560003CC000F3A6806E486F4BB8FBF3F20A21B6FB91
S31560003CD0F3F300FB028800FB036601FB052501FB8D
S31560003CE008384E430BF1FF3B2146302701F8067B2F
S31560003CF0284616F007FE04F10C01404616F002FE57
S31560003D0004F11201304616F0FDFD00232375099B70
S31560003D10E7740BF1050B43EA8B0B002B00F09A80DE
S31560003D20594B2A9ADAF800501360059B3BF0010B59
S31560003D3048BF0BF1030B612B4FEAAB0B00F03981E7
S31560003D4000F3B080452B00F0B780472B04D0412BA1
S31560003D5000F02F8167230593069B002D43F40063D3
S31560003D600693DCBF0123CAF80030DAF80010112987
S31560003D70A8BF11210131204616F09DFDDAF800300A
S31560003D8083445B4540F3FF811BF1040FC0F2FB8166
S31560003D900BF101029B1ACAF80030069ADAF8003075
S31560003DA0BBF1000F02F4006680F27881CBF1000768
S31560003DB05A1CBA4280F23B81302323702E236370F3
S31560003DC02D9ADAF80030136002252D9B1B68002BB4
S31560003DD040F388813E236355013583E106F57426F9
S31560003DE006F5107608F1FF3859E7A6F57426A6F5AC
S31560003DF0107608F1010856E708F5742808F510787A
S31560003E00013D53E7A8F57428A8F51078013552E707
S31560003E109D427FF769AF6FF009031C480A2295FB44
S31560003E20F2F103FB015500FB058595FBF2F803FBF8
S31560003E30085300FB036605360BF1010B96FBF2F6A1
S31560003E400D4651E700266FF0040BB04635464BE74A
S31560003E504FF0000B069B9A0706D40D4A13F0040F29
S31560003E600C4B08BF13465CE70B4B5AE7AFF3008079
S31560003E7000000000000014403F420F009F860100D2
S31560003E806079FEFFA0860100D1F1016040420F001B
S31560003E9020F0016007F00160A1F101600000000000
S31560003EA080842E41059B662B3FF477AF672B3FF4EA
S31560003EB053AF652B7FF44EAFDAF80030112B05DD7A
S31560003EC02D9A113B13601123CAF80030069BDAF86D
S31560003ED0005013F4006605F1020504D12946204618
S31560003EE016F0E9FC834463782370069BDAF80020B9
S31560003EF023F4FE6323F007031B051B0D13431CBF4E
S31560003F002E2363702D9B1B6808BF0125002BC2BF43
S31560003F103E236355013576B1069B1B070BD46219A8
S31560003F20151B12F8013D302BFAD03E2BF8D02E2B04
S31560003F3008BF05F1FF35BBF1000F05F10102B8BFFF
S31560003F40CBF1000B059B6355B4BF2D212B21BBF52F
S31560003F507A7F05F10203A1540ADB4FF47A72BBFB48
S31560003F60F2F202F13001E1548A4B03FB02BBEB1C17
S31560003F70BBF1630F0ADD64229BFBF2F202F13001B2
S31560003F80E1546FF0630101FB02BB01330A229BFB24
S31560003F90F2F2D2B202F13001E1549D1C1C44C2EB34
S31560003FA042130BF1300BC2EB83020BEB42026270E1
S31560003FB075E4079B0C98C3F30A56C3F31301F6B175
S31560003FC0A6F2FF33069A02F008022A431DD1724810
S31560003FD07249059D002E0CBF30223122612D08BF2B
S31560003FE0014620460FF062F86D4A6E4B079933EA38
S31560003FF0210328BF13462A9A054613604FE450EA08
S315600040000103694B08BF0023DCE7CDE90001029399
S31560004010664867492B46059D002E0CBF302231222B
S31560004020612D08BF014620460FF040F8DCE75B448F
S315600040309D1C122DC1BF2D9A113B1360132576B9B5
S315600040402946204616F037FC48B17FEA0B0705F192
S31560004050010504D1637823702E236370B5E6012FC2
S3156000406004EB05030CD11A1B002A02DC0135302350
S31560004070F1E713F801299A70F5E713F80129DA7068
S315600040801A1B002AF9DC302323702E2363703C232D
S31560004090A3702C9B013F02351F6096E60BEB03076E
S315600040A0BD1C122D53DD9EBB1321204616F003FC6A
S315600040B070B30BF1010B14256B1E5B452ADD631E85
S315600040C004EB0B02997803F8011F9A42FAD12E236A
S315600040D05370DAF800302D9A5B44113B1360002B65
S315600040E07FF478AE069B03F00803002E45D0002BC4
S315600040F07FF4D5AB6219151B12F8013D302BFAD04F
S315600041003E2BF8D02E2B7FF4CAAB013DFFF7C7BB21
S315600041101325D1E7631C621913F8011B03F8021C0F
S315600041209A42F9D13C2302F8013CABEB050B2C9A81
S315600041300BF1020313602E226255DAF800206B1C25
S31560004140CAB12D990A603E220235E254CAE73EB9E9
S315600041502946204616F0AFFB10B10BF1010BFD1C92
S31560004160631EA3449A7803F8012F9B45FAD12E2348
S315600041708BF80130B6E71D46B4E7DAF80020134342
S315600041807FF48DABC1E7013BCAF80030059B023B6B
S31560004190059391E618FCFFFFA3F10160ABF10160A6
S315600041A0D1F1016020F0016001FCFFFFB3F1016015
S315600041B0C2F10160FFFFFFFF2DE9F04F5BEC11AB31
S315600041C08BB000223E4B11EE100A594655EC104B4F
S315600041D016F001FE28BB002200232046294616F071
S315600041E067FE00285FD0002200232046294616F08D
S315600041F0F2FD0022D0B100235046594616F058FE13
S31560004200002800F0A0812F4B21221A605046002220
S315600042100023594616F0DFFD002840F052822A4DF1
S31560004220002445EC104B0BB0BDE8F08F274B504691
S31560004230594616F0E7FD98B91DA3D3E90023504609
S31560004240594616F00AFE58B95946504616F05AFDB8
S31560004250064616F0B3FD52465B4616F0BCFD18B92D
S31560004260184B21221A60DAE705F100431D4606F075
S315600042700103019300224FF080435046594616F0E1
S31560004280AAFD28B30CA3D3E900232046294616F0DD
S31560004290B9FDE8B122462B462046294610F070F952
S315600042A004460D46BDE70190E4E700BFAFF300802A
S315600042B00000C0FFFFFFDF41408CB5781DAF15449D
S315600042C00000F03F505D00200000F0FF0000E0C1FC
S315600042D045EC104B09A800F037FF57EC106B10EE59
S315600042E0100AACA3D3E90023394616F0E1FD002895
S315600042F014BF08240024A04D04F1040805EBC8018E
S3156000430032463B46D1E9000116F0FDFD002818BF94
S31560004310444604F1020805EBC80132463B46D1E942
S31560004320000116F0F0FD002818BF444605EBC405F1
S31560004330D5E90289304642464B46394610F052FA74
S315600043408E4B621003EBC203D3E9002310F04AFAE6
S315600043500022CDE902018A4B3046394610F010F949
S31560004360002206460F46864B4046494610F008F93D
S3156000437002460B463046394610F00AFB02460B46AB
S31560004380DDE9020110F086F902460B468046894651
S3156000439010F0F6F86EA3D3E9002306460F4610F038
S315600043A0EFF86DA3D3E9002310F0F2FA32463B46EC
S315600043B010F0E6F86AA3D3E9002310F0E9FA324672
S315600043C03B4610F0DDF868A3D3E9002310F0E0FA6D
S315600043D032463B4610F0D4F842464B4610F0D0F8D1
S315600043E063A3D3E90023CDE9060110F0C9F80646B8
S315600043F00998C4EB001001380F4616F0DFFC002266
S31560004400604B10F0BDF800225F4BCDE902015046CB
S31560004410594610F0B5F816F075FC16F0CFFC002280
S31560004420584B10F0ADF852A3D3E90023CDE904014F
S315600044304046494610F0A4F8DDE9062304460D46D9
S315600044403046394610F0A4FA02460B462046294605
S3156000445010F09EFA42464B4610F09AFA52465B4678
S3156000446010F08EF8DDE9042304460D4650465946A1
S3156000447010F0B8F9DDE9022310F082F802460B4627
S315600044802046294610F084FA00223F4B04460D462A
S3156000449010F076F816F036FC16F090FC0022394BD8
S315600044A010F06EF806460F4602460B462046294631
S315600044B010F098F9DDE9042304460D46DDE90201B2
S315600044C010F05EF832463B4610F062FA00222E4B40
S315600044D08046894610F054F816F014FC16F06EFC0F
S315600044E00022284B10F04CF8064602460B460F4653
S315600044F04046494610F076F922462B4610F048FAB7
S315600045000022214B8046894610F03AF816F0FAFBF5
S3156000451016F054FC00221B4B10F032F802460B4694
S3156000452004460D463046394610F032FA164B0022E4
S3156000453010F026F816F0E6FB144B984206462DDA84
S31560004540134B22221A60002400256AE6AFF300802E
S3156000455028FC4ADBFD783C3FAC8D272E2449623F20
S315600045600E089E999999893F4D5555555555B53FB4
S31560004570F80BAE941D55DC3F90B0016018B1016038
S315600045800000E03F0000B03F0000304020C0FFFF69
S31560004590505D0020CD3B7F669EA0E63F22462B46BF
S315600045A04046494610F01EF90022002304460D4697
S315600045B016F053FC40B1204629460022504B10F0BD
S315600045C011F9013604460D46002EB5BF06F10F08F7
S315600045D04FEA26184FEA281808F10108494BC6EB3E
S315600045E0081603EBC606204637A3D3E900232946FF
S315600045F00FF0C6FF36A3D3E9002310F0C9F92246AF
S315600046002B460FF0BDFF34A3D3E9002310F0C0F9A9
S3156000461022462B460FF0B4FF31A3D3E9002310F0F6
S31560004620B7F922462B460FF0ABFF2FA3D3E9002341
S3156000463010F0AEF922462B460FF0A2FF2CA3D3E969
S31560004640002310F0A5F9D6E9006722462B460FF045
S3156000465097FF29A3D3E9002310F09AF922462B4647
S315600046600FF08EFF32463B460FF08AFF02460B463E
S315600046703046394610F08CF941EC100B09A800F071
S3156000468063FD09984044B0F5806F09DD1E4B222218
S315600046901A60019B002B7FF4C2AD00241B4DC0E560
S315600046A06FF47F739842FFF64BAF00F081FD019B7C
S315600046B055EC104B002B3FF4B4AD05F100431D469D
S315600046C0AFE50024124DACE580CC92E3DD4EEF3EC3
S315600046D0744C38E07A2F243F9FCDD7187ED8553F4B
S315600046E0981D136EABB2833F6D0203D7086BAC3F68
S315600046F0CEC482FFBDBFCE3FEF39FAFE422EE63F03
S315600047000000B03F90B00160505D00200000F07F77
S315600047100000F03FFFFFFFFF2DE9F04F2DED048B0A
S3156000472000239DB0CDE904339FEDBD9B04461192F5
S315600047308A461AF8015B002D4DD0252DBA4F50D010
S315600047407A19636892F88020D20703F1FF3326D581
S31560004750524612F8013B3B4493F88030DE0714D48E
S315600047606368013B002B636015DB23685A1C22607B
S3156000477018783B1893F88030DD0708D4214616F088
S3156000478052F9049D04955146D2E79246E0E7049BB0
S3156000479001330493E4E720460FF0EAFDE9E7002BD6
S315600047A0636008DB23685A1C22601E78AE4207D11C
S315600047B0049D0135E6E720460FF0DAFD0646F5E78B
S315600047C03046214616F02FF9013604D1059B13B900
S315600047D04FF0FF33059305981DB0BDEC048BBDE823
S315600047E0F08F4B78914A2A2B06BF01F1020A4FF0EF
S315600047F0010B4FF0000B53464FF000080A211AF8E0
S31560004800015B781990F88000800630D41BF0080FA1
S3156000481008BF6FF000486C2D34D19AF800504BF009
S31560004820020B03F1020A672D00F3A180652D80F269
S315600048303E81582D00F0C48332DC452D00F037816F
S31560004840472D00F03481252DC5D16368013B002BCF
S315600048506360C0F2E08023685A1C22601D78252DB3
S31560004860A6D02146284616F0DEF80135ADE790451C
S31560004870B1DC01FB0858B8F13008ACD44BF0080B3A
S315600048805346BCE74C2D04D19AF800504BF0120BFE
S31560004890C7E7682DC7D19AF800504BF0040BC0E704
S315600048A0632D00F0C58000F3F7805B2D93D19AF8F5
S315600048B000300022CDE91422CDE91622CDE9182276
S315600048C0CDE91A225E2B0DBF9AF801300AF1010A72
S315600048D000210AF1020A08BF01210125002B3FF4DD
S315600048E07AAF5A111CA800EB820203F01F0352F83C
S315600048F0200C05FA03F3034342F8203C1AF8013B07
S315600049005D2BEBD1002940F05F831BF0010700F0BF
S31560004910658300266368013B002B6360C0F2638396
S3156000492023685A1C226018780025A84517D0421CB7
S3156000493015D000280346B8BF00F11F031CAA5B11FF
S3156000494002EB8303424202F01F0253F8203C00F060
S315600049501F0158BF51420B41DB0700F14C832146D2
S3156000496016F061F8002F40F0928237708FE2702D5A
S3156000497000F002830BDC6E2D00F0EE8200F3F8820D
S31560004980692D7FF428AFCDF80080002387E0752D70
S3156000499000F01183782D00F01383732D7FF41BAF25
S315600049A04FF0FF356368013B002B05F1010563603D
S315600049B0C0F2E88223685A1C226018783B1893F884
S315600049C0806016F00106EDD1411C3FF4FFAE1BF08E
S315600049D0010901BF119B1A1D11921E68A844454525
S315600049E007D0421C05D03B1893F88030DB0740F1B6
S315600049F0CD82214616F017F8B9F1000F01D186F87D
S31560004A0000901BF0010F02BF059B01330593049BC9
S31560004A102B441D46B6E620460FF0AAFC05461EE767
S31560004A209A9999999999B93F21F00160CCCCCC0CAF
S31560004A301BF0080F08BF4FF001081BF0010701BF0C
S31560004A40119B1A1D11921E6818BF0026B8F1000F3F
S31560004A503FF4C1AE049B08EB0305049B013304934A
S31560004A606368013B002B636010DB23685A1C22607D
S31560004A7018780FB906F8010B049BAB42EDD1002FF5
S31560004A807FF480AE059B013305937BE620460FF0ED
S31560004A906FFC431CEDD199E6CDF800800A234BF0FC
S31560004AA0200211A920460FF017FB0546EFE14FF0F3
S31560004AB0FF356B1C08936368013B002B6360C0F293
S31560004AC0D88023685A1C226018783B1893F8803087
S31560004AD0DE0700F1CC80411C3FF478AEB8F1000FE0
S31560004AE000F0D1802B2800F0C8802D2840F0CB80C4
S31560004AF04BF40076AB1C08936368013B002B636044
S31560004B00C0F2BD8023685A1C2260187808F1FF380D
S31560004B109FEDB57B8DED0A9B8DED0C7B0023C14629
S31560004B2006931F46089B03EB0805A5EB0905B9F13B
S31560004B30000F40F0AA80214615F075FF0A23032274
S31560004B407B4393FBF2F3A7EB030840469DED0C0B0A
S31560004B50109300F0C9FA06988DED0C0B16F02EF93D
S31560004B6041EC100B404600F0BFFA002F8DED080BAC
S31560004B7080F254810FF28C29D9E9008900229C4B7E
S31560004B80404649460FF0FCFC02460B460020994918
S31560004B900FF028FE0022964B0FF07CFDCDE9060152
S31560004BA07F429FED917B8DED0A7BF90738D5DDE974
S31560004BB00623404649460FF0EBFE02460B46CDE91A
S31560004BC00E01DDE90C010FF0DBFCDDE90A23CDE91E
S31560004BD00C01DDE90E010FF0D3FCDDE90823CDE918
S31560004BE00A01DDE906010FF0CBFCDDE90A230FF0CF
S31560004BF0CFFEDDE90823CDE90A01404649460FF0BC
S31560004C00BFFC00220B46CDE908230FF0EBFDDDE982
S31560004C100A230FF0BDFE012FCDE90A0100F00381E2
S31560004C2042464B46404649460FF0B2FEDDE9062352
S31560004C300FF0AEFE02460B46DDE906010FF0A0FC62
S31560004C404246CDE906014B46404649460FF098FC80
S31560004C504FF0000842460B4689460FF0C3FDDDE97A
S31560004C6006230FF095FE7F10CDE906019DE7089DAE
S31560004C701FE720460FF07CFB27E75E463AE72046B3
S31560004C800FF076FB42E75E4642E72E2810D17206A9
S31560004C900ED446F040056368013B002B63603ADB47
S31560004CA023685A1C2260187809F1FF392E4639E7C5
S31560004CB0514B034493F880309B0630D5069B1A46C9
S31560004CC04E4B9A4246F48075A0F1300006F04006DD
S31560004CD007DC0A2303FB02030693002EDBD0013FA9
S31560004CE0D9E716F06BF8DDE90A230FF049FC0246B6
S31560004CF00B46DDE90C010FF04BFE0022CDE90C01FD
S31560004D003F4BDDE90A010FF0C5FCCDE90A01002E33
S31560004D10C1D10137BFE720460FF02AFBC4E720F078
S31560004D202002452A06F480737FF405AF002B3FF41A
S31560004D3002AF6368013B002B26F4C07663600FDB2D
S31560004D4023685A1C226018782B280FD02D280BD088
S31560004D5009F1FF3901354FF00008A9440A2227E01E
S31560004D6020460FF005FBEFE746F080066368013BDF
S31560004D70002B05F10205636006DB23685A1C22607E
S31560004D801878A9F10209E6E720460FF0F1FAF8E78C
S31560004D906368013B3038002B46F4807602FB0808D6
S31560004DA005F10105636013DB2368591C21601878DF
S31560004DB0A9EB0503002B05DD0F4B034493F8803008
S31560004DC09906E5D433064CBFA7EB08074744B2E61D
S31560004DD020460FF0CDFAC1E78DED067B4FF0000857
S31560004DE0DFF80C90DDE600BF000000000000000068
S31560004DF0000014400000F03F21F001609F86010032
S31560004E0000002440000000009999C93F000000009E
S31560004E1000000000000000000000F07F1FED057B31
S31560004E20DAD18DED0A7BDDE90A23DDE90C010FF0AD
S31560004E30AFFDDDE908230FF0ABFD41EC100B13A8C5
S31560004E4000F01EF9139F109BB0EE408AF0EE608A68
S31560004E503B44B3F5806F1F4613931FDDB2051AD42A
S31560004E601FED147B724B8DED027B22221A60F705D3
S31560004E707FF5B1ACB00706F0010738D53FB9119B95
S31560004E801A1D11929DED027B1B6883ED007B002D40
S31560004E90BFF6B7ADE9E49FED627BE3E76FF47F733E
S31560004EA09F420EDA0022002351EC100B15F093FF9F
S31560004EB038B99FED5D7B5E4B22221A608DED027BD9
S31560004EC0D5E7B3053846B0EE480AF0EE680A09D56C
S31560004ED000F00AF953EC102B03F100438DED020A42
S31560004EE00393C4E700F000F98DED020BBFE714A849
S31560004EF09DED020B00F0C4F8149B7E33002B1493D7
S31560004F0012DC00220023DDE9020115F064FFF0B92E
S31560004F10474B22221A600020002FB8D1119B1A1D20
S31560004F2011921B681860B2E7FE2B10DD0022002389
S31560004F30DDE9020115F0E7FF3E4B3F4A002814BF4A
S31560004F40184610463A4B006822221A60E4E7DDE90B
S31560004F5002010FF0A7FDDFE7119B1A1D11921B6876
S31560004F60049A1BF0040F14BF1A801A60154609E4F0
S31560004F70CDF80080082392E5CDF8008010232BF051
S31560004F8006028EE520460FF0F3F917E5B9F1000F3A
S31560004F9001D106F8010B6368013B002B05F10105A1
S31560004FA0636004DB23685A1C2260187817E5204684
S31560004FB00FF0DEF913E5CDF800800A235A4670E556
S31560004FC0CDF8008010236AE514AA08231168013B16
S31560004FD06FEA010142F8041BF8D196E4119B1A1D91
S31560004FE011921E6896E420460FF0C2F9411C7FF4C8
S31560004FF09BACFFF7EBBB0FB906F8010B6368013B8F
S31560005000002B05F10105636004DB23685A1C2260EE
S3156000501018788AE420460FF0ABF986E4AFF3008097
S31560005020000000000000F0FF00000000000000002B
S31560005030505D0020600200205C020020FFFFFFFF41
S3156000504030B585B00C4601AB02AA0B49054615F092
S3156000505082FC002804DC04B125609FED050B05E0A9
S3156000506014B1019B1D4425609DED020B05B030BD5A
S31560005070000000000000000008F20160FFFFFFFF73
S31560005080F8B555EC104B06460022002310EE100AC8
S31560005090294615F0A0FE20B19FED110B0023336069
S315600050A0F8BDC5F30A5122462B46A1F2FE3079B906
S315600050B0C5F31301E70F01F4002547EA4101C1F387
S315600050C0130164000DB90138F4E761F31303224656
S315600050D040F2FE3161F31E53306043EC102BDFE784
S315600050E0000000000000000070B555EC104B06464D
S315600050F00022002310EE100A294615F06CFE10B14E
S315600051009FED0B0B70BDC5F30A53334440F2FE723C
S31560005110934205DD0A4B22221A609FED070BF1E7E9
S31560005120002BEDDD63F31E5545EC104BEAE700BF3F
S315600051300000000000000000000000000000F07F9A
S31560005140505D0020FFFFFFFFF8B555EC104B06469B
S315600051500022002310EE100A294615F03CFE20B10D
S315600051609FED110B00233360F8BDC5F30A5122464B
S315600051702B46A1F2FE3079B9C5F31301E70F01F4AE
S31560005180002547EA4101C1F3130164000DB90138F6
S31560005190F4E761F31303224640F2FE3161F31E53D6
S315600051A0306043EC102BDFE70000000000000000D9
S315600051B070B555EC104B06460022002310EE100A1F
S315600051C0294615F008FE10B19FED0B0B70BDC5F3B7
S315600051D00A53334440F2FE72934205DD0A4B2222A3
S315600051E01A609FED070BF1E7002BEDDD63F31E55AB
S315600051F045EC104BEAE700BF00000000000000002D
S31560005200000000000000F07F505D002080B48DB08B
S3156000521000AF0346FB7100237B620023BB62324A08
S3156000522007F1180307CA83E807002F4A07F10C0342
S3156000523007CA83E80700FB79012B01D800234DE0FC
S31560005240FB79022B02D0FB79032B03D1FB79023B5E
S31560005250FB7112E0FB79062B02D0FB79072B03D199
S31560005260FB79063BFB7108E0FB790A2B02D0FB79E0
S315600052700B2B02D1FB790A3BFB710023FB621BE01F
S31560005280FB6A9B0007F13002134453F8183C002B6D
S315600052900FD0BA6A531CBB62FB6A9B0007F13001F0
S315600052A00B4453F8181C930007F13002134443F87B
S315600052B0241CFB6A0133FB62FB6A022BE0D9FB7993
S315600052C0BA6A9A4201D2002308E0FB799B0007F193
S315600052D03002134453F8243C7B627B6A18463437A9
S315600052E0BD465DF8047B704758B1016080B586B0F5
S315600052F000AF0346B9607A60FB73FB7B1846FFF725
S3156000530085FF78617B69002B01D101234AE027493B
S31560005310FB7B9A1E13465B0013445B010B4403F54B
S31560005320DA734FF4C0121A607B691B6B43F48042D8
S315600053307B691A637B691B6B43F400427B691A6362
S315600053407B6900221A60FB7B0A2B08D0FB7B0B2B48
S3156000535005D0FB7B062B02D0FB7B062B07D17B6936
S315600053604FF400225A637B694FF480125A637B685C
S31560005370002B16D07B691A690D4B13407A68127838
S3156000538002F00F017A685278120402F47022114317
S315600053907A689278120202F470620A431A437B6951
S315600053A01A61002318461837BD4680BD00800D403F
S315600053B0F0F0F0FF80B588B000AF78600B46FB7008
S315600053C01346BB70FB785A00BB781344BB6100235D
S315600053D0BB600023FB607A68BB6904339B0013449F
S315600053E05B6823F01F03FB61A4E0BB68002B0CD154
S315600053F0FB699B687B617A69524B1340FA69928BB1
S31560005400C2F30B0292B21343BB60FB695B68DBB20B
S315600054105BB2002B03DA4FF0FF33FB600DE0FB69F4
S31560005420DB69C3F312331A46FB695B68C3F30E4349
S315600054309BB2D21AFB681344FB607A68BB6904337B
S315600054409B0013445A687968BB690C339B000B4414
S315600054505B689A421CD17A68BB6904339B0013442B
S3156000546000225A607A68BB690C339B0013440022A1
S315600054705A607B689A68BB699B01134401229A60F3
S315600054807B689A68BB699B0113440022DA600DE071
S315600054907A68BB6904339B0013445B681B681946D2
S315600054A07A68BB6904339B0013445960FB695B6887
S315600054B0C3F3C033DBB2002B09D17A68BB6904330E
S315600054C09B0013445B6823F01F03002B14D1BB7849
S315600054D0DB01DAB2FB781343DBB23B7400237B74E7
S315600054E07B681B6807F108021146184610F0FBFB43
S315600054F00023BB600023FB60FB6900225A607B6867
S315600055001B691A46FB691A607B68FA691A617B68CF
S3156000551093F95430DBB20133DBB25AB27B6883F85D
S3156000552054207A68BB6904339B0013445B6823F09C
S315600055301F03FB61FB69002B7FF457AF00BF203769
S31560005540BD4680BD00F0FFFF80B58CB000AF7860CF
S315600055507B685B68D3F8AC317B627B6A002B4DD08D
S31560005560002387F82B3045E097F82B3001229A40CC
S315600055707B6A1340002B38D07B689A6897F82B308B
S315600055805B00DBB29B01134430333B623B6A1B78A2
S31560005590DB0987F82A3097F82A2097F82B301946C6
S315600055A07868FFF707FF97F82A3083F00103DAB2CD
S315600055B097F82B3019467868FFF7FCFE97F82B3082
S315600055C03B753B6AFB6008233B6101237B7597F85B
S315600055D02B30194678680FF091FD7B681B6807F1E0
S315600055E00C021146184610F07EFB97F82B300133FB
S315600055F087F82B3097F82B30032BB5D97B685B681F
S31560005600D3F8BC317B627B685B687A6AC3F8BC217D
S315600056107B6A002B00F0A781002387F829309DE183
S3156000562097F8293001229A407B6A1340002B00F0DC
S31560005630908197F829300F2B08D997F82930103BBD
S3156000564087F82B30012387F82A3006E097F829304F
S3156000565087F82B30002387F82A3097F82B30032BF6
S3156000566000F2748197F82B305B00DAB297F82A3033
S315600056701344FB770023FB6000233B6197F82B30D4
S31560005680002B23D197F82A30012B1FD17B689A68AB
S31560005690FB7F9B01134493F8383003F00203DBB2BF
S315600056A0002B13D07B689A68FB7F9B0113441B68B1
S315600056B0C3F34073DBB2002B08D17B689A68FB7F2B
S315600056C09B011A44136843F000531360FB7F7A68AA
S315600056D004339B0013445B6823F01F03FB6230E1D5
S315600056E0002387F82830FB7F7A6804339B001344D5
S315600056F05B6823F01F03FB6222E0FB6A5B68DBB238
S315600057005BB2002B06DBFB6A5B68C3F3C033DBB2BC
S31560005710002B10D0FB6A5B68DBB25BB2002B13DB3D
S31560005720FB6A5B68C3F3C033DBB2002B0CD001238A
S3156000573087F8283008E0FB6A1B6823F01F03FB62CA
S31560005740FB6A002BD9D100E000BF97F82830002B08
S3156000575003D1FB6A002B40F0FB80FB7F7A68043341
S315600057609B0013445B6823F01F03FB62E5E0FB6A62
S315600057705B68DBB25BB2002B00DAE2E0FB68002B11
S315600057800AD1FB6A9A687A4B1340FA6A928BC2F323
S315600057900B0292B21343FB60FB6ADB69C3F31233FD
S315600057A01A46FB6A5B68C3F30E439BB2D21A3B6927
S315600057B013443B61FB7F7A6804339B0013445A6849
S315600057C0FB7F79680C339B000B445B689A421CD163
S315600057D0FB7F7A6804339B00134400225A60FB7F88
S315600057E07A680C339B00134400225A607B689A687F
S315600057F0FB7F9B01134401229A607B689A68FB7F5A
S315600058009B0113440022DA600DE0FB7F7A68043363
S315600058109B0013445B681A68FB7F11467A68043301
S315600058209B0013445960FB6A5B68C3F3C033DBB209
S31560005830002B09D1FB7F7A6804339B0013445B68B5
S3156000584023F01F03002B16D197F82A30DB01DAB25A
S3156000585097F82B301343DBB23B7500237B757B686F
S315600058601B6807F10C021146184610F03CFA00233B
S31560005870FB6000233B61FB6A00225A607B681B6900
S315600058801A46FB6A1A607B68FA6A1A617B6893F942
S315600058905430DBB20133DBB25AB27B6883F85420F2
S315600058A0FB7F7A6804339B0013445B6823F01F0315
S315600058B0FB62FB6A002B40D0FB6A5B68DBB25BB2C3
S315600058C0002B3ADA97F82B2097F82A301B011344FD
S315600058D0012202FA03F3BB617B685B68BA69C3F8AD
S315600058E0B0217B685B68D3F8B821BB691340002B95
S315600058F023D100BF7B685B68D3F8B021BB691340D6
S31560005900002BF7D17B685B68D3F8B821BB6913407D
S31560005910002B12D17B689A68FB7F9B011344FA6A5D
S315600059209A607B689A68FB7F9B0113440022DA6069
S315600059307B685B68BA69C3F8B021FB6A002B7FF4A9
S3156000594016AFFB6A002B7FF4CBAE02E000BF00E02F
S3156000595000BF97F82930013387F8293097F8293046
S315600059601F2B7FF65DAE00BF3037BD4680BD00BFE2
S3156000597000F0FFFF80B592B000AFF8607A603B60E0
S315600059800B46FB72FB7A5B0003F01E03FA7AD209C0
S31560005990D2B21343BB62FB7A03F00F02FB7ADB08D9
S315600059A003F010031343012202FA03F37B627B6A5E
S315600059B03B640023BB633A6843F6FF7313449B0B57
S315600059C07B63002387F83330012387F83230002366
S315600059D0FB62FB68002B01D103239CE1FB689A689C
S315600059E0BB6A9B01134493F8383003F00103DBB2C2
S315600059F0002B01D101238EE1FB6893F85630002B12
S31560005A0001D0012387E17B6B002B01D101237B63EE
S31560005A1007F11703184613F030FCFB6893F954300E
S31560005A201A467B6B934205D9FB7D184613F046FCFC
S31560005A30022370E13B68B3F5804F03D94FF480438E
S31560005A40FB6301E03B68FB633A68FB6BD31A3B6020
S31560005A50FB681B693B623B6A1B681A46FB681A61F6
S31560005A60FB6893F95430DBB2013BDBB25AB2FB6898
S31560005A7083F85420BB6B002B01D13B6A7B643B6A85
S31560005A8001221A603B6A00225A607A68BB6B134433
S31560005A901A463B6A9A603B6A9B6803F58052A04B44
S31560005AA013403A6AD3603B6ADB6803F580523B6A0F
S31560005AB01A613B6A1B6903F580523B6A5A613B6A0D
S31560005AC05B6903F580523B6A9A61FB6BC3F30E0315
S31560005AD099B23A6A536861F31E435360FB6BC3F332
S31560005AE012013A6AD36961F31E33D3613B6A9B68DC
S31560005AF0C3F30B0399B23A6A938B61F30B039383F7
S31560005B003A6AD37F6FF3C713D3773B68002B04D110
S31560005B103A6A536843F4004353603A6A5368802193
S31560005B2061F307035360BA6BFB6B1344BB63FA689C
S31560005B30BB6A0C339B0013445B68002B0FD0FA687A
S31560005B40BB6A0C339B0013445B683A6A1A60FA6856
S31560005B50BB6A0C339B0013443A6A5A6010E0FA68D9
S31560005B60BB6A04339B0013443A6A5A60FA68BB6A9C
S31560005B700C339B0013443A6A5A60012387F833302A
S31560005B803B68002B7FF456AFFB7A03F00F03002BC4
S31560005B9041D1FB7ADB09DBB2012B3CD1FB7A03F006
S31560005BA00F03DBB25B00FB77FB689A68FB7F9B01A8
S31560005BB013443033BB61FB689A68BB6A9B0113442C
S31560005BC093F8383003F00203DBB2002B23D0FB6B73
S31560005BD0002B20D0BB69DB881A46FB6B93421AD236
S31560005BE0FB689A68BB6A9B0113441B68C3F30A434C
S31560005BF09BB21A46FB6BB3FBF2F102FB01F29B1AF6
S31560005C00002B08D1FB689A68BB6A9B011A4413682B
S31560005C106FF35D73136097F83330002B35D1FB68F3
S31560005C205B68D3F8B0217B6A1340002B1FD0FB7DE5
S31560005C30184613F043FB00236DE0FB685B68D3F8FE
S31560005C404021FB685B6842F48052C3F84021FB68E0
S31560005C505B68D3F8B8313B64FB685B68D3F8403166
S31560005C6003F48053002B02D0002387F8323097F874
S31560005C703230002BE1D1FB685B68D3F84021FB68CA
S31560005C805B6822F48052C3F8402197F83330002BCA
S31560005C9004D13A6C7B6A1340002B37D1FB689A6853
S31560005CA0BB6A9B0113447A6C9A60FB689A68BB6A0C
S31560005CB09B0113440022DA60FB685B687A6AC3F86A
S31560005CC0B02119E0FB6A0133FB62FB6A154A934215
S31560005CD005D1FB7D184613F0F1FA01231BE0FB6842
S31560005CE05B68D3F8BC217B6A1340002B0DD1FB683F
S31560005CF05B687A6AC3F8B021FB685B68D3F8B82141
S31560005D007B6A1340002BDDD000E000BFFB7D1846A8
S31560005D1013F0D4FA002318464837BD4680BD00BF4D
S31560005D2000F0FFFF8096980080B485B000AF786081
S31560005D300023FB7315E0FB7B0F4AD35C002B0DD170
S31560005D40FB7B0D4A0121D1547B68FA7B1A70FB7B81
S31560005D505C2202FB03F3094A134406E0FB7B013332
S31560005D60FB73FB7B002BE6D0002318461437BD4639
S31560005D705DF8047B704700BF5C0E0020000E0020BB
S31560005D8080B588B000AF0346B9607A60FB73324A6B
S31560005D9007F1140392E8030083E80300FB7B012B01
S31560005DA003D9FB7B023B012B01D9062350E007F1A7
S31560005DB013031846FFF7B8FFF861FB7C5B02274ABE
S31560005DC01A44FB69DA60FB7CDB02254A1A44FB69EC
S31560005DD09A60FB69FA7B83F85720FB7B023B9B004A
S31560005DE007F12002134453F80C3C1A46FB695A60CB
S31560005DF0FB695B68D3F82431DBB203F01F03DAB2C8
S31560005E00FB6983F85520FB6993F85530032B01D85D
S31560005E1001231DE0FB69BA681A60FB695B68D3F809
S31560005E20A821FB695B6822F00302C3F8A821FB691D
S31560005E305B68D3F8A821FB695B6842F00202C3F88D
S31560005E40A821F8690EF072FE7B68FA691A60002371
S31560005E5018462037BD4680BD64B10160000C002045
S31560005E600008002080B485B000AF78607B68BB60B6
S31560005E707B68002B01D103232FE00023FB730FE027
S31560005E80FB7B5C2202FB03F3174A1344BA689A420F
S31560005E9003D1FB7B154A0021D154FB7B0133FB7395
S31560005EA0FB7B002BECD0BB685B680022C3F8482103
S31560005EB0BB685B68D3F84021BB685B6822F001026F
S31560005EC0C3F84021BB685B68D3F84021BB685B6858
S31560005ED042F00202C3F84021002318461437BD463B
S31560005EE05DF8047B704700BF000E00205C0E00204A
S31560005EF080B58AB000AF78600B46FB707B683B620A
S31560005F00FB7803F00F02FB78DB0803F01003134302
S31560005F10012202FA03F3FB61FB785B00DBB203F05C
S31560005F201E03DAB2FB78DB09DBB21343FB767B68D0
S31560005F30002B01D10323E5E007F10B03184613F0AC
S31560005F409CF90023FB604FF0FF333B61FB7E3A6AAE
S31560005F5004339B0013445B6823F01F037B6209E0F4
S31560005F607A6AD37F43F08003D3777B6A1B6823F01A
S31560005F701F037B627B6A002BF2D1FB7E3A6A043395
S31560005F809B0013445B6823F01F037B629EE07B6A81
S31560005F90DB7F23F07F03DBB2002B00F09C807B6A03
S31560005FA05B68DBB25BB2002B1ADA3B6A5B68D3F8DC
S31560005FB0B4113B6A5B68FA690A43C3F8B42100BF4F
S31560005FC03B6A5B68D3F8B421FB691340002BF7D1B9
S31560005FD03B6A5B68D3F8B821FB691340002BE4D1B8
S31560005FE0FB68002B0AD17B6A9A68484B13407A6A31
S31560005FF0928BC2F30B0292B21343FB60FB7E3A6A4A
S3156000600004339B0013445A68FB7E396A0C339B0049
S315600060100B445B689A420ED1FB7E3A6A04339B005E
S31560006020134400225A60FB7E3A6A0C339B00134489
S3156000603000225A600DE0FB7E3A6A04339B001344EB
S315600060405B681A68FB7E11463A6A04339B00134408
S3156000605059607B6A5B68C3F3C033DBB2002B09D13E
S31560006060FB7E3A6A04339B0013445B6823F01F038C
S31560006070002B0DD1FB783B7500237B753B6A1B6853
S3156000608007F10C02114618460FF02DFE0023FB6047
S315600060907B6A00225A603B6A1B691A467B6A1A60F1
S315600060A03B6A7A6A1A613B6A93F95430DBB2013310
S315600060B0DBB25AB23B6A83F85420FB7E3A6A0433F9
S315600060C09B0013445B6823F01F037B627B6A002B93
S315600060D07FF45DAF00E000BF7B6A002B0DD13B6AA9
S315600060E09A68FB7E9B01134401229A603B6A9A6818
S315600060F0FB7E9B0113440022DA60FB7A184613F09C
S31560006100DDF8002318462837BD4680BD00F0FFFF46
S3156000611080B58AB000AFF8600B467A60FB72FB68A8
S315600061203B62012387F82730FB68002B01D10323EC
S315600061302BE1FB7A112B00F2158101A252F823F0B4
S3156000614089610060A5610060C1610060D96100601D
S31560006150F961006019620060396200605362006034
S31560006160E1620060656300606563006065630060AE
S315600061706563006065630060036300604963006097
S3156000618065630060656300603B6A5B68D3F84021C5
S315600061903B6A5B6842F00102C3F84021002387F83E
S315600061A02730F0E03B6A5B68D3F840213B6A5B6866
S315600061B022F00102C3F84021002387F82730E2E08D
S315600061C07B68002B00F0D0807968386A0EF047FD56
S315600061D0034687F82730C7E07B68002B00F0C6804F
S315600061E07B68FB61FB691B781946386A0EF039FEDD
S315600061F0034687F82730B9E07B68002B00F0B8804B
S315600062007B68FB61FB691B781946386A0EF0A4FE51
S31560006210034687F82730ABE07B68002B00F0AA8046
S315600062207B68FB61FB691B781946386A0EF009FFCB
S31560006230034687F827309DE07B68002B00F09C8042
S315600062407B68BB61BB6901221A80002387F827300F
S3156000625092E07B68002B00F091807B687B617B69B4
S315600062601B7803F00F03FB747B691B78DB09BB7437
S31560006270FB7C032B00F28280FB7C002B18D03B6AF0
S315600062805A68FB7C013B70339B0013445B68BA7CA5
S31560006290002A02D04FF4803200E001221340002B26
S315600062A014BF01230023DBB29AB27B695A8013E0E4
S315600062B03B6A5B68D3F8C031BA7C002A02D04FF4DF
S315600062C0803200E001221340002B14BF012300231B
S315600062D0DBB29AB27B695A80002387F827304DE09B
S315600062E07B68002B4CD07B68FB61FB691B781A4688
S315600062F03B6A5B685206C3F85421002387F827304F
S315600063003EE0002387F8263013E097F8263063F0E6
S315600063107F03DBB21946386A0EF0A3FD97F8263084
S315600063201946386A0EF09DFD97F82630013387F8D6
S31560006330263097F82630032BE7D9386A0EF0F6FB3D
S31560006340002387F827301EE07B68002B1AD07B6815
S31560006350FB613B6A93F85820FB691A70002387F843
S3156000636027300FE000BF0EE000BF0CE000BF0AE080
S3156000637000BF08E000BF06E000BF04E000BF02E027
S3156000638000BF00E000BF97F8273018462837BD46A3
S3156000639080BD00BF90B5A7B002AFF860B9607A6003
S315600063A00023FB670023BB67052387F88F30BB6834
S315600063B05B68B3F1FF3F02D07B68002B02D197F890
S315600063C08F309FE17B68C7F88830D7F888309B6844
S315600063D0C7F8843007F177031A460621F86800F09B
S315600063E059FABB681B7A002B00F01781BB685B68A3
S315600063F0082B03D1BB681B68002B02D197F88F303E
S3156000640080E1BB681B68C7F88030D7F880305A884F
S31560006410D7F884305A80D7F880309A88D7F8843095
S315600064209A80D7F88030DA88D7F88430DA80D7F85F
S3156000643080305A78D7F884305A70D7F880301A7816
S31560006440D7F884301A70D7F884301B7803F060036D
S31560006450002B23D1D7F884305B780C2B00F2CB80ED
S31560006460D7F884305B781A46A84B53F82230002B55
S3156000647000F0C180D7F884305B781A46A34B53F896
S31560006480224007F1780307F17C02D7F88410D7F829
S315600064908800A047034687F88F30ACE0D7F8843091
S315600064A0DB88002B64D0D7F884301B785BB2002B76
S315600064B05EDBD7F88430DB88002B21D0D7F88430B8
S315600064C01B7803F02003002B1AD00023BB66012340
S315600064D087F87030D7F884307B66D7F88430DB88ED
S315600064E0FB6607F164031A460121F86801F0D8F9E2
S315600064F0034687F88F30FB6EBB67BB6EFB6725E094
S31560006500D7F88430DB88002B20D0D7F884301B780E
S3156000651003F04003002B19D00023BB65012387F8E5
S315600065206030D7F884307B65D7F88430DB88FB65CC
S3156000653007F154031A461321F8680FF068FF034603
S3156000654087F88F30FB6DBB67BB6DFB6797F88F3045
S31560006550002B50D1FA6FD7F88430DB880021F868B9
S315600065600FF0DCFC034687F88F3097F88F30C9E070
S31560006570D7F884301B7803F02003002B1AD0002351
S31560006580BB64012387F85030D7F884307B64D7F832
S315600065908430DB88FB6407F144031A460121F868FE
S315600065A001F07EF9034687F88F30FB6CBB67BB6CE6
S315600065B0FB6720E0D7F884301B7803F04003002B9C
S315600065C019D00023BB63012387F84030D7F88430A5
S315600065D07B63D7F88430DB88FB6307F134031A46A4
S315600065E01321F8680FF013FF034687F88F30FB6BB3
S315600065F0BB67BB6BFB6797F88F2007F17803019346
S3156000660007F17C0300930023D7F88410F8680FF035
S315600066107FF9034687F88F3072E097F87730032B5F
S3156000662013D1D7F884305B781A46384B53F822403A
S3156000663007F1780307F17C02D7F88410D7F8880051
S31560006640A047034687F88F305AE0BB685B68002B2B
S3156000665056D0D7F88430DB88002B51D0D7F88430F9
S315600066601B785BB2002B4BDBD7F884301B7803F0CA
S315600066702003002B16D0BB681B68BB62002387F81B
S315600066803030D7F884307B62BB685B68FB6207F1A9
S3156000669024031A460121F86801F002F9034687F8D7
S315600066A08F301CE0D7F884301B7803F04003002B52
S315600066B015D0BB681B68BB61002387F82030D7F80C
S315600066C084307B61BB685B68FB6107F114031A4623
S315600066D01321F8680FF09BFE034687F88F3097F812
S315600066E08F2007F17803019307F17C030093012360
S315600066F0D7F88410F8680FF00BF9034687F88F30E7
S3156000670097F88F3018469437BD4690BD6CB10160DE
S3156000671080B588B000AF786039601B4BFB603B6822
S315600067203B6101233B770023FB7600237B77802345
S31560006730BB7640233B8307F10C0207F11803194629
S3156000674078680FF001FC0346FB77FB7F002B01D0D6
S31560006750FB7F15E00023BB7607F10C0207F11803F7
S31560006760194678680FF0F0FB0346FB77FB7F002B3A
S3156000677005D0802178680FF046FCFB7F00E000239F
S3156000678018462037BD4680BD9563006080B584B0ED
S3156000679000AF03463960FB7107F10B03184612F030
S315600067A06CFD0023FB601EE02B49FA681346DB0094
S315600067B09B1A1B010B441B68002B11D02649FA68F3
S315600067C01346DB009B1A1B010B446D331B78FA7969
S315600067D09A4205D1FB7A184612F070FD012336E025
S315600067E0FB680133FB60FB68002BDDD00023FB6098
S315600067F025E01949FA681346DB009B1A1B010B4416
S315600068001B68002B18D11449FA681346DB009B1AE3
S315600068101B010B446D33FA791A70FA681346DB0074
S315600068209B1A1B010C4A1A443B681A60FB7A18468D
S3156000683012F044FD00230AE0FB680133FB60FB684D
S31560006840002BD6D0FB7A184612F038FD0223184684
S315600068501037BD4680BD00BF600E002080B485B095
S3156000686000AF03463960FB710623FB73FB79023B7D
S31560006870012B05D80023FB733B68054A1A6000E0CC
S3156000688000BFFB7B18461437BD465DF8047B704736
S31560006890A0B1016080B586B000AFF8600B467A6043
S315600068A0FB720123FB757B68002B01D1042353E047
S315600068B0FB7A023B062B4DD801A252F823F000BFAB
S315600068C0DD680060ED68006025690060356900601C
S315600068D0FD68006011690060456900607A680F2193
S315600068E0F8680FF00FF90346FB7534E07A681021FB
S315600068F0F8680FF007F90346FB752CE07B683B618F
S315600069000023FB75FB6893F86E203B691A7022E0E2
S315600069107B683B610023FB75FB6893F86C203B69E1
S315600069201A7018E07A680621F8680FF0EBF80346EB
S31560006930FB7510E07A680721F8680FF0E3F8034604
S31560006940FB7508E07A680921F8680FF0DBF8034602
S31560006950FB7500E000BFFB7D18461837BD4680BD5D
S3156000696080B586B000AFF8600B467A60FB72012393
S31560006970FB75FB7A033B0B2B72D801A252F823F00E
S31560006980B1690060616A0060616A0060C169006047
S31560006990D7690060616A0060616A0060416A006090
S315600069A0516A0060216A0060616A0060316A006055
S315600069B07A681121F8680FF0A5F80346FB7554E074
S315600069C07B68002B4ED00023FB757B681A78FB68CA
S315600069D083F86E2046E0FB6893F86E30032B15D083
S315600069E07B68002B40D00023FB757B681A78FB68B8
S315600069F083F86C20FB68032283F86E20FB686C3397
S31560006A001A461421F8680FF07DF82DE0FB686C33A8
S31560006A101A460821F8680FF075F80346FB7523E0FF
S31560006A207A680A21F8680FF06DF80346FB751CE07A
S31560006A307A680B21F8680FF065F80346FB7514E079
S31560006A407A680C21F8680FF05DF80346FB750CE078
S31560006A507A680D21F8680FF055F80346FB7504E077
S31560006A6000BF02E000BF00E000BFFB7D184618379C
S31560006A70BD4680BD80B485B000AF78600023FB6002
S31560006A8017E01149FA6813461B0113449B000B4437
S31560006A901B68002B0AD1FA6813461B0113449B003E
S31560006AA0094A1A447B681A60002306E0FB680133D2
S31560006AB0FB60FB68002BE4D0022318461437BD4602
S31560006AC05DF8047B704700BFD00E002080B596B09D
S31560006AD000AF786000237B65012387F853307B68BD
S31560006AE0002B02D197F85330BBE17B6893F84030B6
S31560006AF0002B08D07B6893F840207B685B689B68B6
S31560006B005B799A4202D997F85330AAE17B685B6851
S31560006B109B681A687B6893F8403019466FF060434B
S31560006B200B44DB0013447B630023FB644DE07B6B0B
S31560006B305968FA6C13465B0013449B000B441B7840
S31560006B40022B3FD10023BB6422E07B6B5968FA6C51
S31560006B5013465B0013449B000B445A68BB6C1B01D5
S31560006B6013441A787B6893F842309A420DD17B6B56
S31560006B705968FA6C13465B0013449B000B445A68D1
S31560006B80BB6C1B0113447B650FE0BB6C0133BB64BC
S31560006B907B6B5968FA6C13465B0013449B000B448D
S31560006BA01B7A1A46BB6C9342CFDB7B6B5968FA6CD7
S31560006BB013465B0013449B000B44DA787B6883F8CA
S31560006BC0412008E0FB6C0133FB647B6B1B781A4643
S31560006BD0FB6C9342ABDB7B6D002B02D197F8533095
S31560006BE03FE17B687A6D9A6000237B6461E00023F5
S31560006BF087F830307B6D99687A6C13465B00134476
S31560006C005B000B441B7987F831307B6D99687A6C31
S31560006C1013465B0013445B000B441B7887F82E30E9
S31560006C207B6D99687A6C13465B0013445B000B447A
S31560006C305B88BB857B6D99687A6C13465B001344F1
S31560006C405B000B445B7887F82F3097F82E30DB09B2
S31560006C50DBB2012B1CD197F82F30032B18D197F894
S31560006C602E3003F00F03DAB27B6883F83D207B6831
S31560006C70002283F83E207B684FF0FF325A637B68C0
S31560006C80002283F83C207B6800229A63774B3B6244
S31560006C907B687B627B681B6807F1200207F12C0129
S31560006CA018460FF051F9034687F853307B6C013371
S31560006CB07B647B6D1B791A467B6C934297DB002362
S31560006CC03B6442E07B6B59683A6C13465B00134445
S31560006CD09B000B441B780A2B34D10023FB6323E013
S31560006CE07B6B59683A6C13465B0013449B000B44FC
S31560006CF05A68FB6B1B0113441A787B6893F8423021
S31560006D009A420ED17B6B59683A6C13465B0013440A
S31560006D109B000B445A68FB6B1B0113447B6500BFE9
S31560006D2019E0FB6B0133FB637B6B59683A6C134666
S31560006D305B0013449B000B441B7A1A46FB6B934221
S31560006D40CEDB08E03B6C01333B647B6B1B781A46F9
S31560006D503B6C9342B6DB7B687A6DDA600023BB637B
S31560006D6077E000233B777B6D9968BA6B13465B00CF
S31560006D7013445B000B441B797B777B6D9968BA6B18
S31560006D8013465B0013445B000B441B78BB767B6D3C
S31560006D909968BA6B13465B0013445B000B445B88CF
S31560006DA03B837B6D9968BA6B13465B0013445B004B
S31560006DB00B445B78FB76BB7EDB09DBB2012B18D11B
S31560006DC0FB7E022B15D1BB7E03F00F03DAB27B6824
S31560006DD05A777B6800229A777B684FF0FF325A6158
S31560006DE07B6800221A777B6800229A61204BFB60E1
S31560006DF01EE0BB7E5BB2002B1ADBFB7E022B17D13B
S31560006E00BB7E03F00F03DAB27B6883F82D207B68C4
S31560006E10002283F82E207B684FF0FF325A627B682F
S31560006E20002283F82C207B6800229A62114BFB605B
